:100000000C9432070C9479070C9479070C947907B7
:100010000C9479070C9479070C9479070C94790760
:100020000C9479070C9479070C94D82B0C94AA2C77
:100030000C94101E0C9479070C9479070C94790792
:100040000C9479070C9479070C9479070C94790730
:100050000C9479070C94841E0C9479070C947907FE
:100060000C9479070C9479070C9479070C94790710
:100070000C9479070C9479070C9479070C94790700
:100080000C9479070C9479070C9479070C947907F0
:100090000C9479070C9479070C9479070C947907E0
:1000A0000C9479070C9479070C9479077D097F09E2
:1000B0008A09810983098509870989098C098E09BB
:1000C00090099B0992099409960998099A099D0932
:1000D00074137413A613A613E4130414741574157F
:1000E00046147415F314F3146415741574156D1512
:1000F0000015001500150015001500150015001558
:100100000015001500150015001500150015001547
:1001100011151F1526152D1537150316031615165F
:1001200015160C16151615161516031603161116A8
:10013000151615161116282416243A24DC22132528
:100140001325132413251325672413257B24F32457
:100150001325132513251325AF24132513259824C0
:1001600013255324132513250D250D250D250D25A8
:100170000D250D250D250D250D250F2513252824CD
:100180000B241325132513251325132513251325B8
:100190001325132513250F251325132513241325A4
:1001A0000B250B250B250B250B250B250B250B25CF
:1001B0000B250F25172D3E2D302E3E2D302E8A2D4E
:1001C000AD2D302E032E122E14001A00080015003B
:1001D000170000001C0018000C001200130004009F
:1001E0001600070009000A0000000B000D000E00B9
:1001F0000F0033001D001B00060019000500E00081
:100200001100100036003700380029002B00E300F1
:10021000D75C2A00E6002C0001512D003400280094
:100220001E021F0252002F02300200004B00240069
:100230002500260025022002500051004F00210217
:1002400000004E002100220023002E022F0030006B
:10025000260227022402E00035001E001F002000B5
:10026000310002534900E300D85C4C00E6002C004A
:100270000100370027002E0049004A0052004D00BF
:100280004B000000520040004100420043004C007F
:10029000500051004F004E00000051003D003E0054
:1002A0003F0044000000A90000000000005CE000E6
:1002B00000003A003B003C0045000000AA00E300BB
:1002C000D75C2A00E6002C0010504600470048008A
:1002D00044454255473A20656E61626C65642E0A5A
:1002E000000A002530313662003A200025303258AD
:1002F000000A722F632030313233343536373839C3
:100300004142434445460A00556E69636F64652067
:10031000696E707574206D6F6465207365742074E8
:100320006F3A2025750A00556E69636F6465206910
:100330006E707574206D6F646520696E69742074C9
:100340006F3A2025750A000A002530325820006BCC
:100350006579626F6172645F7265706F72743A2062
:10036000000A0025303258006B6579626F61726453
:100370005F7365745F6C65643A200064656C5F6BE5
:1003800065795F6269743A2063616E2774206465E1
:100390006C3A20253032580A006164645F6B6579DD
:1003A0005F6269743A2063616E2774206164643A05
:1003B00020253032580A00290A002575002F002513
:1003C00075005D28002564002000256400200025BC
:1003D000640020002564007C0025303258006D6FD9
:1003E0007573656B6579205B62746E7C782079200B
:1003F0007620685D287265702F61636C293A205BF6
:10040000006D6B5F776865656C5F74696D655F74BF
:100410006F5F6D6178203D2025640A006D6B5F770A
:100420006865656C5F6D61785F7370656564203DBC
:100430002025640A006D6B5F74696D655F746F5F82
:100440006D6178203D2025640A006D6B5F6D6178D9
:100450005F7370656564203D2025640A006D6B5FE5
:10046000696E74657276616C203D2025640A006DAA
:100470006B5F64656C6179203D2025640A006D6BBB
:100480005F776865656C5F74696D655F746F5F6DDC
:100490006178203D2025640A006D6B5F7768656593
:1004A0006C5F6D61785F7370656564203D202564C5
:1004B0000A006D6B5F74696D655F746F5F6D617865
:1004C000203D2025640A006D6B5F6D61785F73705D
:1004D000656564203D2025640A006D6B5F696E745C
:1004E000657276616C203D2025640A006D6B5F6447
:1004F000656C6179203D2025640A000A002575009D
:10050000363A20776865656C5F74696D655F746FF6
:100510005F6D61783A20000A00257500353A207732
:100520006865656C5F6D61785F73706565643A20BE
:10053000000A00257500343A2074696D655F746F98
:100540005F6D61783A20000A00257500333A206D0E
:1005500061785F73706565643A20000A0025750054
:10056000323A20696E74657276616C286D73293A2F
:1005700020000A00257500313A2064656C617928F5
:100580002A31306D73293A20000A092D2056616CFA
:10059000756573202D0A004D3E004D25643E2000F8
:1005A0003F007365742064656661756C740A00436E
:1005B0003E200077686572652064656C74613A203E
:1005C000637572736F723D25642C20776865656C66
:1005D0003D25640A53656520687474703A2F2F6551
:1005E0006E2E77696B6970656469612E6F72672F13
:1005F00077696B692F4D6F7573655F6B6579730AEA
:10060000000A092D204D6F7573656B6579202D0AE1
:100610004553432F713A09717569740A313A096477
:10062000656C6179282A31306D73290A323A09697B
:100630006E74657276616C286D73290A333A096DA0
:1006400061785F73706565640A343A0974696D6531
:100650005F746F5F6D61780A353A09776865656C1C
:100660005F6D61785F73706565640A363A09776813
:1006700065656C5F74696D655F746F5F6D61780A45
:100680000A703A097072696E742076616C756573D0
:100690000A643A097365742064656661756C7473E5
:1006A0000A75703A092B310A646F776E3A092D3159
:1006B0000A706775703A092B31300A7067646F777A
:1006C0006E3A092D31300A0A7370656564203D2049
:1006D00064656C7461202A206D61785F7370656554
:1006E00064202A2028726570656174202F20746947
:1006F0006D655F746F5F6D6178290A003F004D3E44
:100700002000433E20004C25640A0074696D657228
:100710005F72656164333228293A202530346C5881
:100720000A006B65796D61705F636F6E6669672E35
:100730006E6B726F3A2025580A006B6579626F61A3
:1007400072645F69646C653A2025580A006B6579AC
:10075000626F6172645F70726F746F636F6C3A2066
:1007600025580A00686F73745F6B6579626F6172F8
:10077000645F6C65647328293A2025580A000A09C9
:100780002D20537461747573202D0A004743433A3A
:1007900020342E392E32204156522D4C4942433AB4
:1007A00020312E382E3073766E204156525F4152E2
:1007B00043483A20617672350A004F5054494F4EF3
:1007C000533A204C554641204D4F5553454B4559C2
:1007D0002045585452414B455920434F4E534F4C9E
:1007E0004520434F4D4D414E44204E4B524F2034F7
:1007F0003039360A004255494C443A2022302E36D0
:100800002E3336352D312D67633766383534222047
:100810002832323A30333A3333204D617920203751
:100820002032303139290A005649443A2030783193
:1008300032303928546563686E6F6D616E63792953
:10084000205049443A20307841314535284174726E
:1008500065757329205645523A203078303030384B
:100860000A00444553433A20712E6D2E6B2E206BA7
:100870006579626F617264206669726D7761726515
:1008800020666F72204174726575730A000A092D23
:100890002056657273696F6E202D0A000A092D209B
:1008A000436F6E736F6C65202D0A4553432F713A69
:1008B00009717569740A6D3A096D6F7573656B65B9
:1008C000790A000A092D204D61676963202D0A44C9
:1008D0003A094465627567204D65737361676520E9
:1008E000546F67676C650A583A094D61747269788C
:1008F000204465627567204D6F646520546F67679B
:100900006C65202D2053686F77206B657970726558
:100910007373657320696E206D61747269782067E6
:100920007269640A4B3A094B6579626F617264209F
:10093000446562756720546F67676C65202D20538E
:10094000686F77206B65797072657373207265705C
:100950006F72740A4D3A094465627567204D6F7570
:10096000736520546F67676C650A563A095665725D
:1009700073696F6E0A533A095374617475730A434D
:100980003A09416374697661746520436F6E736FD1
:100990006C65204D6F64650A46312D4631303A0949
:1009A00053776974636820746F204C617965722095
:1009B000302D392028463130203D204C30290A3056
:1009C0002D393A0953776974636820746F204C613C
:1009D00079657220302D390A47524156453A0953FC
:1009E000776974636820746F204C61796572203078
:1009F0002028616C7465726E617465290A423A0937
:100A00004A756D7020746F20426F6F746C6F6164F3
:100A100065720A4553433A094A756D7020746F2018
:100A2000426F6F746C6F616465722028616C7465CD
:100A3000726E617465290A453A095072696E7420B4
:100A4000454550524F4D2053657474696E67730A63
:100A50004253504143453A09436C65617220454514
:100A600050524F4D0A4E3A094E4B524F20546F6729
:100A7000676C650A000A002575002E6E6B726F3A6E
:100A800020000A002575002E737761705F62616334
:100A90006B736C6173685F6261636B7370616365D4
:100AA0003A20000A002575002E737761705F677227
:100AB0006176655F6573633A20000A002575002E34
:100AC0006E6F5F6775693A20000A002575002E7306
:100AD0007761705F72616C745F726775693A20004C
:100AE0000A002575002E737761705F6C616C745F0E
:100AF0006C6775693A20000A002575002E636170E5
:100B0000736C6F636B5F746F5F636F6E74726F6C27
:100B10003A20000A002575002E737761705F636FBD
:100B20006E74726F6C5F636170736C6F636B3A208D
:100B3000000A0025303258006B65796D61705F6383
:100B40006F6E6669672E7261773A20000A0025751C
:100B5000002E6D6F7573653A20000A002575002E12
:100B60006B6579626F6172643A20000A0025750036
:100B70002E6D61747269783A20000A002575002E86
:100B8000656E61626C653A20000A002530325800BB
:100B900064656275675F636F6E6669672E72617701
:100BA0003A20000A0025750064656661756C745F03
:100BB0006C617965723A20003F004E4B524F3A20EB
:100BC0006F66660A004E4B524F3A206F6E0A000A5B
:100BD0006D6F7573653A206F66660A000A6D6F75F2
:100BE00073653A206F6E0A000A6B6579626F6172F5
:100BF000643A206F66660A000A6B6579626F6172FB
:100C0000643A206F6E0A000A6D61747269783A2046
:100C10006F66660A000A6D61747269783A206F6EB9
:100C20000A000A64656275673A206F66660A000A00
:100C300064656275673A206F6E0A000A0A4A756D2C
:100C400070696E6720746F20626F6F746C6F61647F
:100C500065722E2E2E2000433E2000436C6561728B
:100C6000696E6720454550524F4D0A006565636FB8
:100C70006E6669673A0A005B735D004B6579626F67
:100C80006172642073746172742E0A005B575D0098
:100C90005B535D005B525D005B445D005B435D0048
:100CA0000403300000000E03410074007200650070
:100CB00075007300000018035400650063006800AD
:100CC0006E006F006D0061006E006300790000002F
:100CD0000403090409025B00030100A0FA090400EF
:100CE0000001030101000921110100012240000758
:100CF00005810308000A090401000103000000093E
:100D0000211101000122C0000705820320000A0909
:100D10000402000203000000092111010001222247
:100D200000070583032000010705030320000112CB
:100D3000011001000000080912E5A10800010203EA
:100D4000010631FF0974A1010975150026FF009500
:100D500020750881020976150026FF009520750888
:100D60009102C005010902A10185020901A1000546
:100D700009190129051500250195057501810295BF
:100D800001750381010501093009311581257F9520
:100D9000027508810609381581257F95017508813E
:100DA00006050C0A38021581257F95017508810614
:100DB000C0C005010980A1018503160100260300BA
:100DC0001A81002A8300751095018100C0050C0965
:100DD00001A1018504160100269C021A01002A9C2B
:100DE00002751095018100C005010906A101850564
:100DF000050719E029E7150025019508750181020D
:100E000005081901290595057501910295017503DC
:100E100091010507190029EF1500250195F07501CD
:100E20008102C005010906A101050719E029E7159E
:100E3000002501950875018102950175088101055C
:100E40000819012905950575019102950175039110
:100E5000010507190029FF150026FF0095067508F2
:100E60008100C00011241FBECFEFDAE0DEBFCDBF8E
:100E700004B603FE27C08091360290913702A091FC
:100E80003802B09139028730904BA740B04BD1F473
:100E900010923602109237021092380210923902E4
:100EA00014BE84B7877F84BF0FB6F894A89580914D
:100EB0006000886180936000109260000FBEE0E0E7
:100EC000F8E3099511E0A0E0B1E0E2ECFDE502C035
:100ED00005900D92AC33B107D9F722E0ACE3B1E055
:100EE00001C01D92A633B207E1F70E94F3280C94CB
:100EF000DF2E0C940000FF93EF93E0913C01F09102
:100F00003D01309709F00995EF91FF910895FC019B
:100F10008591803011F0EFDFFBCF0895FF27E0E2ED
:100F200030E247FF0CC0419597FF09C0EDE26095A4
:100F3000709580959095611D711D811D911D27FFF4
:100F400002C0219530E350E2AA27660F771F881F61
:100F5000991FAA1FA41710F0A41B63955A95A9F70F
:100F6000AA3008F0A95FA05DAF93F39561157105F4
:100F70008105910541F7ED3211F4EF93F395F217E6
:100F800018F43F93F395FBCF8F91B5DFFA95E1F716
:100F90000895E991F9918591803021F0853219F019
:100FA000AADFF9CF089520E0E89455915532C1F3B6
:100FB000503311F4689455915A3348F4505390F3D8
:100FC000220F022E220F220F200D250FF4CF0EF438
:100FD000219589919991533619F3533729F1533556
:100FE00059F1BC0188279927E8945C3621F489914E
:100FF000999168945591543639F446EF7EF077FF15
:101000000DC08FEF9FEF0AC055374AE039F05835D1
:1010100040E121F0523642E009F00895FF93EF934A
:101020007DDFEF91FF91B7CFFF93EF93FC018191AB
:101030008030B9F360DFFBCFFF93EF9368DFF1CF30
:10104000DF93CF93CDB7DEB72596A3DFCF91DF91A6
:1010500008950F931F93CF93DF939C013A95211529
:101060003F4148F5EB018C0190FF03C080EEFB018E
:10107000099511FF03C081EEFE01099512FF03C01F
:1010800082EEFE01099513FF03C083EEFE01099570
:101090000115104180F084EEFE01099585EEFE01F8
:1010A000099586EEFE01099587EEFE01DF91CF914D
:1010B0001F910F910994DF91CF911F910F91089586
:1010C000877091E001C0990F8A95EAF7892F0E94F5
:1010D000BE1B0C94F71B877091E001C0990F8A9595
:1010E000EAF7892F0E94BE1B0C94F71B877091E0D2
:1010F00001C0990F8A95EAF7892F0E94C41B0C94AE
:10110000F71B877091E001C0990F8A95EAF7892F44
:101110000E94C41B0C94F71BCF93DF93EC01805EFD
:101120009109089710F0209719F46BE678E002C057
:1011300060E678E0CE010E9429088C2FDF91CF91E4
:101140000C948711CF93DF93EC010E94C012CE0163
:10115000805E9109089710F0209719F461E878E013
:1011600002C066E778E0CE01DF91CF910C942908A8
:10117000CF93DF93EC010E948C08CE01DF91CF91D9
:101180000C94A20881E0089581E008950C94C408AD
:101190001F93CF93DF9300D000D01F92CDB7DEB75F
:1011A00049835A832091640189819A81211112C057
:1011B000662349F00E94281B182F682F89819A8185
:1011C0000E94CD1A03C00E94FC1A182F69817A81EF
:1011D000812F04C00E94281B69817A810F900F9093
:1011E0000F900F900F90DF91CF911F910C942A0ACE
:1011F000FC01408151816281738184810C94C80813
:101200000E94901C811102C00E940A1D0E94370E8C
:101210000C949C0C0C949F0C282F2F7041F0822F63
:1012200090E02A3010F44D9608950697089587E2CD
:1012300090E0089508950C941A090C941B090895E0
:101240000E94F3150E941F092FEF84E39CE02150B8
:1012500080409040E1F700C0000087E797E7909357
:101260000108809300080C94AA1E0F931F93CF933C
:10127000DF938C010E94F808EC01B8010E94C608B7
:10128000882309F4DDC0B801CE010E94D40E882362
:1012900009F4D6C0B801CE010E94730F882309F467
:1012A000CFC0C531FCE5DF0708F07CC0C2308CE55B
:1012B000D80708F452C0F8018281882309F454C089
:1012C0000E94901C811102C00E940A1D0E94A31C52
:1012D00090E09093280280932702FE01E350FC45A2
:1012E000E231F10530F4EA5AFF4F809127020C9465
:1012F000832E80912702816027C0826025C0846090
:1013000023C0806121C080621FC080641DC08068CE
:101310001BC08460886018C08E7F16C08D7F14C08B
:101320008B7F12C08F7E10C08F7D0EC08F7B0CC054
:101330008F770AC08B7F877F07C087FB222720F922
:1013400091E0922790FB87F98093270280912702F2
:101350000E94A71C0E94F31573C0C115ECE5DE07BF
:1013600051F0C130DC4579F0C801DF91CF911F9178
:101370000F910C94C208F8018281882309F460C09F
:101380000E9420095DC0F8018281882309F458C0B9
:101390008091E80181608093E80180ED92E00E94F5
:1013A00087074EC0CC3D8CE5D80739F4F80182811F
:1013B000882309F445C080E00DC0CD3DECE5DE0793
:1013C00060F0CD3D8CE5D80791F5F8018281882346
:1013D000B9F182E00E949B2933C0C631DC4521F679
:1013E0000E94A81B282FF801828140910001509192
:1013F0000101882379F02A7A91E009F490E0909332
:101400003E01911102C069E201C065E3CA010E9478
:10141000931D0AC080913E01811102C069E201C0A2
:1014200065E3CA010E949E1D0E94F71B09C0CE3DC4
:10143000DC4509F099CFF801828181110E940A1DD3
:1014400080E0DF91CF911F910F91089580E090E0AF
:10145000089508959BE0799FF00111249CE2899FF3
:10146000E00DF11D1124E60FF11DEE0FFF1FE853F3
:10147000FE4F859194910895880F991FFC01EF51BB
:10148000FD4F859194910895CF93DF930E942A0A8E
:101490000E94FB0BEC01811520E59207F0F5811508
:1014A00030E4930708F024C1883E910500F5803EA2
:1014B000910508F09CC1883A910570F4853A910530
:1014C00008F09FC08130910509F491C108F442C130
:1014D000049708F08CC13EC18F3B910508F49CC075
:1014E000803C910508F436C1805C9109F4C08115F7
:1014F00040E2940758F4C11581E0D80708F077C19D
:10150000C03FD10508F426C1D06571C1811520E323
:10151000920708F0E4C09F70DEC0811535E593079F
:1015200008F044C0811544E5940708F0F8C0C115DF
:1015300082E5D80708F5C11521E5D20708F0DBC020
:101540008C2F837021E030E002C0220F331F8A9578
:10155000E2F73C68CE0174E0969587957A95E1F7BD
:101560008370382BCF70C695C69580E2C89FE00186
:101570001124C22BD32B3BC12C2F26952695CE01AF
:1015800083709927C115D34508F0BAC040E2249F63
:1015900090011124C1E0D0E002C0CC0FDD1F8A957C
:1015A000E2F72C2B3D2BE901DC6821C1811549E5CF
:1015B0009407A0F4C11588E5D80708F0B5C0C11597
:1015C00026E5D20708F0C6C08C2F0E94780C8F71D8
:1015D000C82FD0E0DC2FCC27D06209C181153AE5B5
:1015E000930708F4A6C090568115904208F0B2C047
:1015F0008D2F8F710E94780CDD27D0628F71D82BD0
:10160000F6C0853A910509F4A8C0863A910509F01B
:10161000A7C0C2E8D0E4EBC0883A910509F4A3C0A2
:10162000893A910509F4A2C08A3A910509F4A1C04A
:101630008B3A910509F4A0C08C3A910509F49FC03A
:101640008B3B910509F49EC08C3B910509F49DC02C
:101650008D3A910509F49CC0803B910509F49BC02B
:101660008E3A910509F49AC08F3A910509F499C010
:10167000813B910509F498C0823B910509F497C01C
:10168000833B910509F496C0843B910509F495C00C
:10169000853B910509F494C0863B910509F493C0FC
:1016A000873B910509F492C0883B910509F491C0EC
:1016B000893B910509F490C08D3B910509F48FC0D9
:1016C0008E3B910509F48EC08A3B910509F48DC0CB
:1016D000C0E0D4E48CC00E943C0AEC0188C0992789
:1016E000D3FF03C0EC01D86C82C0EC01D06C7FC08A
:1016F000DF70D06A7CC0DC2FCC27C16FD06A77C086
:1017000040E2249F90011124C1E0D0E002C0CC0F40
:10171000DD1F8A95E2F7C22BD32BDA6868C0D82F79
:10172000CC27C46FD06A63C0DC2FCC27C06FD06ACF
:101730005EC08F700E94780C94E0D695C7959A95FC
:10174000E1F7CF70D0E0DC2FCC27D06A8F70806EAD
:10175000C82B4DC0C0E0D0E04AC0C1E8D0E447C0CB
:10176000C3E8D0E444C0C2EED4E441C0C9EED4E43E
:101770003EC0CAEED4E43BC0C5EBD4E438C0C6EBEF
:10178000D4E435C0C3EBD4E432C0C4EBD4E42FC0FE
:10179000C7EBD4E42CC0CCECD4E429C0CDECD4E429
:1017A00026C0C3E8D5E423C0CAE8D5E420C0C2E916
:1017B000D5E41DC0C4E9D5E41AC0C1E2D6E417C01F
:1017C000C3E2D6E414C0C4E2D6E411C0C5E2D6E454
:1017D0000EC0C6E2D6E40BC0C7E2D6E408C0CFE62E
:1017E000D4E405C0C0E7D4E402C0CAE2D6E4CE0126
:1017F000DF91CF9108958238910549F1B0F481339A
:10180000910509F458C048F48932910509F44EC095
:101810008A32910509F454C008958533910509F47D
:1018200040C08933910599F00895833E910529F1CF
:1018300038F4803E910591F0823E9105A1F0089523
:10184000863E9105F9F0873E910531F1089520918A
:10185000270220FD3AC021FD38C00895809127025B
:1018600080FD35C032C08091270282FF32C0809156
:10187000270284FD30C083EE39C08091270282FDAB
:1018800028C0F5CF8091270283FF27C080912702CF
:1018900084FD21C087EE2AC08091270283FD1DC0F0
:1018A000F5CF8091270285FD1AC01BC080912702C9
:1018B00085FD17C014C08091270286FD14C015C095
:1018C0008091270286FD11C00EC080EE0FC089E313
:1018D0000DC082EE0BC080E009C086EE07C089E231
:1018E00005C085E303C08AE201C081E390E008956A
:1018F0009091270292FF0DC0282F2871283019F4EB
:10190000877F846006C0282F2471243011F48B7FD8
:10191000886093FF0DC0282F2871283119F4877E25
:10192000846106C0282F2471243111F48B7E8861D4
:1019300094FD877E089508950C949B0C08950C9453
:101940009E0CE82FF0E0EE0FFF1FE15CFE4F808160
:1019500091810895CF92DF92EF92FF920F931F93A0
:10196000CF93DF9381EF92E00E9487078FE3E82E09
:1019700081E0F82EC0E0D0E09CEEC92E92E0D92E96
:1019800003EE12E0DF93CF93DF92CF920E94200804
:1019900089EE92E00E948707F701819191917F0182
:1019A0000E94761C9F938F931F930F930E94200891
:1019B00081EE92E00E94870721968DB79EB7089628
:1019C0000FB6F8949EBF0FBE8DBFC430D105D1F6BF
:1019D000DF91CF911F910F91FF90EF90DF90CF900B
:1019E0000895EEE1F1E041E050E024E02E0F919106
:1019F000A92FA295AF70B0E091963C9191979F70FE
:101A0000BA0102C0660F771F9A95E2F7CB01809565
:101A1000832391968C932E13EACFA3E1B1E041E0AA
:101A200050E02BE02A0F8D91E82FE295EF70F0E067
:101A300031A18F70BA0102C0660F771F8A95E2F755
:101A4000CB01962F9095932391A392A1892B82A3EA
:101A50002A13E9CF109248011092470110924001D9
:101A600010923F0110924A011092490110924201D6
:101A70001092410110924C0110924B0110924401BE
:101A80001092430110924E0110924D0110924601A6
:101A90001092450184E00E94E70D0C9400094F92DA
:101AA0005F927F928F929F92AF92BF92CF92DF927E
:101AB000EF92FF920F931F93CF93DF932EE1422E6D
:101AC00021E0522EA7E4B1E020E001E010E05D014A
:101AD0008D909C90119711961C921E92E201899113
:101AE0002E01E82FE295EF70F0E031A18F70A80190
:101AF00002C0440F551F8A95E2F7CA01342B31A367
:101B000042A1382F3095432342A350EA5A95F1F76A
:101B100093E1C92E91E0D92E40E050E0E6017990A2
:101B20006E01672D62956F7070E0EB01E8A06D911A
:101B30007C911197F12CD72DDF7002C0F594E794BA
:101B4000DA95E2F7E0FC08C07801042E02C0EE0C42
:101B5000FF1C0A94E2F702C0E12CF12C6E297F29C8
:101B600011967C936E934F5F5F4F4B305105B1F6EA
:101B700091A1392331A392A1892B82A3129681E0EE
:101B8000F501408151818416950609F480E0282BE7
:101B9000F1E0AF34BF0709F09ACF44E06FE371E0A2
:101BA00087E491E00E94E80D0E940A0981E0DF913C
:101BB000CF911F910F91FF90EF90DF90CF90BF904A
:101BC000AF909F908F907F905F904F900895089571
:101BD000FF920F931F93CF93DF93F82E092F162FA9
:101BE000D72FC42F222349F081E0809351010E9416
:101BF000421E9093500180934F01809151018823A0
:101C0000D9F080914F01909150010E945A1E069781
:101C100098F0EF2DF02FA12FBD2F80E090E04C2FFA
:101C200050E08417950734F4219131912D933D9321
:101C30000196F7CF10925101DF91CF911F910F9133
:101C4000FF900895CF93DF9397FF0DC0FB01228192
:101C5000222349F0EC010E94760ECE019F770E946C
:101C6000B70E0E94A00E81E0DF91CF9108958CE025
:101C700090E00E949D2E90E0A0E0B0E080931C02D6
:101C800090931D02A0931E02B0931F028091E80161
:101C900080FF0EC080911C021F928F9387E293E019
:101CA0009F938F930E9420080F900F900F900F909A
:101CB000089560911C028CE090E00C94AB2E809310
:101CC0001C020E94590E8091E80180FF0EC0809195
:101CD0001C021F928F9388E093E09F938F930E9442
:101CE00020080F900F900F900F9008950E94A81B4E
:101CF000809320020E94BB1B80911C02813071F0F6
:101D000048F0823081F08430A1F486EE0E942813DE
:101D100088E10DC082EE0E9487110BC088E193E03C
:101D20000E94B80806C082EE0E94871187E50E94D3
:101D300028138FE39CE90197F1F700C00000089594
:101D400080911C02813039F040F0823031F08430D3
:101D500051F488E206C08CE204C082EE0E94C012F8
:101D600002C00E942813809120020C94B81B0F938C
:101D70001F93CF93DF938C01CCE0D0E0C8010C2EF1
:101D800002C0969587950A94E2F78F700E940C091D
:101D90000E9428132497CC3F8FEFD80779F7DF9163
:101DA000CF911F910F9108950F931F93CF93DF93BE
:101DB000EC018B01FB018281882301F1C33EFCE52C
:101DC000DF07B9F050F4C13EECE5DE0781F0C23E1A
:101DD000FCE5DF0799F481E00FC0C43E8CE5D8072D
:101DE00051F0C53EECE5DE0749F484E005C080E033
:101DF00003C082E001C083E00E945F0EB801CE0103
:101E0000DF91CF911F910F910C94220E0F931F938E
:101E1000CF93DF93C62FD42F022FFC01828188231A
:101E2000C9F0609354010E94421E90935301809325
:101E3000520180E28C0F883008F050C0C77081E0FA
:101E400001C0880FCA95EAF7DF91CF911F910F91DA
:101E50000C94301310915401161330C0809152012C
:101E6000909153010E945A1E883C910538F5C0E2BA
:101E7000CD0F1D17B9F080E2810F883040F4177044
:101E800081E001C0880F1A95EAF70E943713C83025
:101E900048F481E09D2F977001C0880F9A95EAF76A
:101EA0000E943013802F0E942813C830B8F4D770D6
:101EB00081E001C0880FDA95EAF70AC080E28C0F52
:101EC000883060F4C77081E001C0880FCA95EAF7D6
:101ED000DF91CF911F910F910C943713DF91CF9128
:101EE0001F910F9108959C01CB01203F4CE53407D1
:101EF00019F178F4283D4CE53407B9F0293D4CE55B
:101F0000340731F1273D3C4531F526E241EE61EEE3
:101F10000FC0223F4CE53407B9F090F0233F3C4519
:101F2000D1F427E246EE66EE03C027E245EE65EE09
:101F30000E94060F80E0089526E240EE60EEF8CFA2
:101F400027E244EE64EEF4CF26E242EE62EEF0CFFA
:101F500028E241E0ECCF1092540181E00895909383
:101F60005A01809359010895E0915901F0915A0165
:101F7000309721F00190F081E02D099480E00895E0
:101F8000EF92FF921F93CF93DF93FC01A091590131
:101F9000B0915A01109709F442C080911201882330
:101FA00041F08091270287FF04C08081818385E012
:101FB0008083EF011296ED91FC911397CE01099564
:101FC0008091E80182FF2BC080FF04C08FE493E082
:101FD0000E94870718E089E4E82E83E0F82E8091BC
:101FE000E80180FF0BC088811F928F93FF92EF92D0
:101FF0000E9420080F900F900F900F901150219683
:102000001111EDCF8091E80180FF09C087E493E0D2
:10201000DF91CF911F91FF90EF900C948707DF9194
:10202000CF911F91FF90EF900895E0915901F091A9
:102030005A01309739F022E0DC012C930480F581BD
:10204000E02D09940895209157013091580182178D
:10205000930771F09093580180935701E0915901D3
:10206000F0915A01309721F00680F781E02D099414
:10207000089520915501309156018217930771F010
:102080009093560180935501E0915901F0915A01C6
:10209000309721F00084F185E02D0994089585B7EB
:1020A000806885BF85B7806885BF089508950895C5
:1020B0000C94571008950C945A100E944F100E94CF
:1020C00056100C94581081E008950E94391E0E9409
:1020D000F10C0E94BB1E0C945B10CF93C82F809113
:1020E000E80182FF1EC080FF04C088E693E00E94E2
:1020F00087078091E80180FF0CC01F92CF9383E691
:1021000093E09F938F930E9420080F900F900F9061
:102110000F908091E80180FF04C081E693E00E9467
:1021200087078C2FCF910C941D094F925F927F925D
:102130008F929F92AF92BF92CF92DF92EF92FF92D7
:102140000F931F93CF93DF93CDB7DEB72A970FB6C8
:10215000F894DEBF0FBECDBF0E944F0D0E946310EA
:10216000811111C08FEF89838A831B820E94421ED6
:102170008160782F9D838C8349815A816B818D8109
:102180000E94531157C09CE5C92E91E0D92E00E062
:1021900010E0AA24A394B12C702E802F0E94A10CD1
:1021A0004C01F601419051906F0148265926411487
:1021B000510431F40F5F1F4F0430110569F7D2CF7E
:1021C0008091E80181FD0E94AA0C20E030E07501B9
:1021D000022E02C0EE0CFF1C0A94E2F7C701842114
:1021E0009521892B09F12E837F828E209F2091E0FB
:1021F000892809F490E098870E94421E8160782F18
:102200009A8789874E815F8168858A850E945311EC
:10221000000F111FF801E45AFE4F80819181E826DA
:10222000F926F182E08206C02F5F3F4F2B30310547
:1022300071F6C0CF0E94D02010915B010E94B40FB4
:102240001817D9F00E94B40F80935B012A960FB63D
:10225000F894DEBF0FBECDBFDF91CF911F910F91DC
:10226000FF90EF90DF90CF90BF90AF909F908F90B6
:102270007F905F904F900C946D102A960FB6F89453
:10228000DEBF0FBECDBFDF91CF911F910F91FF90A9
:10229000EF90DF90CF90BF90AF909F908F907F9006
:1022A0005F904F900895CF93DF93CDB7DEB72B9714
:1022B0000FB6F894DEBF0FBECDBF4F835887698736
:1022C0007A878B87DE01119686E0FD0111928A954F
:1022D000E9F785E0FE01379601900D928A95E1F7C6
:1022E00049815A816B817C818D819E810E949D18DC
:1022F0002B960FB6F894DEBF0FBECDBFDF91CF9106
:102300000895FC01808191810E94691B0895CF93FB
:10231000DF931F92CDB7DEB7882309F42DC1682F54
:102320008238C1F40E94B40F81FD26C169E3809117
:102330000001909101010E94931D0E94F71B2FEF55
:1023400081EE94E0215080409040E1F700C0000011
:1023500069E319C0833811F50E94B40F80FD0CC1E8
:1023600063E580910001909101010E94931D0E94FC
:10237000F71B2FEF81EE94E0215080409040E1F771
:1023800000C0000063E580910001909101010E946E
:102390009E1D0F90DF91CF910C94F71B8438C1F4F0
:1023A0000E94B40F82FDE8C067E480910001909123
:1023B00001010E94931D0E94F71B2FEF81EE94E014
:1023C000215080409040E1F700C0000067E4DBCF7F
:1023D0008CEF860F813A70F4862F69830E942A253C
:1023E00069818111C9C080910001909101010E9411
:1023F000931DCFCF80E2860F883048F4677081E06C
:1024000001C0880F6A95EAF70E94AB1BC2CF8BE52B
:10241000860F833088F4653A29F0663A31F083E814
:1024200090E005C081E890E002C082E890E00F9063
:10243000DF91CF910C94231088E5860F873108F047
:1024400091C0683A09F445C0693A09F445C06A3A4E
:1024500009F445C06B3A09F445C06C3A09F445C02B
:102460006B3B09F445C06C3B09F445C06D3A09F477
:1024700045C0603B09F445C06E3A09F445C06F3A67
:1024800009F445C0613B09F445C0623B09F445C00D
:10249000633B09F445C0643B09F445C0653B09F45E
:1024A00045C0663B09F445C0673B09F445C0683B3D
:1024B00009F445C0693B09F445C06D3B09F445C0CA
:1024C0006E3B09F445C06A3B09F445C080E090E0EA
:1024D00044C082EE90E041C089EE90E03EC08AEEBA
:1024E00090E03BC085EB90E038C086EB90E035C0D3
:1024F00083EB90E032C084EB90E02FC087EB90E05C
:102500002CC08CEC90E029C08DEC90E026C083E8D4
:1025100091E023C08AE891E020C082E991E01DC0EB
:1025200084E991E01AC081E292E017C083E292E070
:1025300014C084E292E011C085E292E00EC086E20F
:1025400092E00BC087E292E008C08FE690E005C001
:1025500080E790E002C08AE292E00F90DF91CF9195
:102560000C943910603F40F0862F0E94561F0F9048
:10257000DF91CF910C9443200F90DF91CF9108957C
:10258000882309F464C0823879F40E94B40F81FF73
:102590005EC069E380910001909101010E94931D4A
:1025A0000E94F71B69E310C08338B1F40E94B40F96
:1025B00080FF4DC063E580910001909101010E9470
:1025C000931D0E94F71B63E580910001909101012A
:1025D0000E949E1D0C94F71B843879F40E94B40F5E
:1025E00082FF35C067E480910001909101010E9453
:1025F000931D0E94F71B67E4E7CF9CEF980F913A79
:1026000010F4682FE1CF90E2980F983050F4877063
:1026100091E001C0990F8A95EAF7892F0E94B11BBA
:10262000D9CF9BE5980F933020F480E090E00C9494
:10263000231098E5980F973120F480E090E00C94F7
:102640003910803F20F00E94BE1F0C944320089553
:10265000CF93C82F0E9487118C2FCF910C94C0125A
:10266000882321F00E94AB1B0C94F71B089588234C
:1026700021F00E94B11B0C94F71B08954F925F92BA
:102680006F927F92BF92CF92DF92EF92FF920F9361
:102690001F93CF93DF937C01D62FC72FFC010581B9
:1026A00002950F70128111110E94CB1B0E94A11B79
:1026B000882379F0112369F080E28D0F883048F08B
:1026C00082E00E94421C0E94A11B91E0B82EB92614
:1026D00001C0B12CCC2EC2948FE0C822D12CF601BF
:1026E000E859FF4F0C94832E8C2F807FCF70882366
:1026F00011F0C295C07F112399F0CC2309F4CFC10A
:1027000080E28D0F883010F0D11104C08C2F0E9410
:10271000AB1B03C08C2F0E94BE1B0E94F71BBFC1C6
:102720008D2F0E94C012CC2309F4DEC180E28D0FF0
:10273000883010F0D11104C08C2F0E94B11B03C04F
:102740008C2F0E94C41B0E94F71BCEC18C2F807F50
:10275000CF70803211F0C295C07FDD2319F0D130E7
:10276000C9F022C0112371F0002341F0013031F48F
:102770000E94DE1B8C2B0E94E41BB6C10E94DE1B54
:102780008C2B46C1002319F0013009F4ADC10E9421
:10279000ED1B18C0112321F0063008F0A5C10EC0B2
:1027A000053008F0A1C10EC0112351F0002331F013
:1027B000F701858180FF73C18F7085838C2F28C1BD
:1027C00001117EC18C2F2AC18C2F8695869583702E
:1027D00090E0009719F0019761F086C1112321F074
:1027E0008D2F9C2F937002C080E090E00E942310F8
:1027F0008BC1112321F08D2F9C2F937002C080E09C
:1028000090E00E94391080C11123F9F0D53F51F0BA
:10281000D63F71F0D43FA9F4809121029091220219
:1028200081600BC08091210290912202826005C0DC
:1028300080912102909122028460909322028093E1
:1028400021028D2F0E94561F1EC0D53F51F0D63F4A
:1028500071F0D43FA9F480912102909122028E7FE1
:102860000BC080912102909122028D7F05C0809142
:102870002102909122028B7F909322028093210269
:102880008D2F0E94BE1F0E9443203EC18C2F83705B
:1028900009F050C0111134C18D2F82958695877033
:1028A000880F880F9D2F9F70492E512C612C712C01
:1028B000082E04C0440C551C661C771C0A94D2F7E1
:1028C000D4FF14C00FE010E020E030E0B901A8010F
:1028D00004C0440F551F661F771F8A95D2F7CB019E
:1028E000BA01609570958095909503C060E070E0A6
:1028F000CB01C695C695C370D0E0C230D10561F05A
:10290000C330D10581F0642975298629972921973B
:1029100071F00E94E219F4C064297529862997296B
:102920000E94F419EDC00E94E219C301B2010E9495
:10293000D019E6C0112319F08C2F817001C0869543
:10294000882309F4DDC08D2F829586958770880FC6
:10295000880F9D2F9F70492E512C612C712C082EB1
:1029600004C0440C551C661C771C0A94D2F7D4FF93
:1029700014C00FE010E020E030E0B901A80104C06D
:10298000440F551F661F771F8A95D2F7CB01BA01F6
:10299000609570958095909503C060E070E0CB01E4
:1029A000C695C695C3704C2F50E04230510569F072
:1029B0004330510589F064297529862997294130CA
:1029C000510571F00E94A81A9BC0642975298629B7
:1029D00097290E94BA1A94C00E94A81AC301B20192
:1029E0000E94961A8DC08D2F90E0FC01E05EF109E7
:1029F000E531F10508F04FC0E858FF4F0C94832EE5
:102A0000DF708C2F8F71112331F00E942F1A8D2FC0
:102A10000E94301369C00E94501A8D2F0E943713F4
:102A200063C0112341F0053008F05EC08C2F8F7118
:102A30000E94751A59C0063008F056C0F7CF11230E
:102A400039F08C2F8F710E942F1A4EC01123C9F3B9
:102A50008C2F8F710E94501A47C0112329F08C2FA0
:102A60008F710E941A1A40C00E94151A3DC011238E
:102A700049F0CF718C2F0E942F1A63E08C2F0E9497
:102A80002D1C32C081E00E94421C023068F182E0BD
:102A90000E94421C29C0112331F0002391F28D2F96
:102AA0000E94871121C0002399F2D93349F45FEFC6
:102AB00067EE73E0515060407040E1F700C00000E5
:102AC0008D2F0E94C01210C04C2F4F706D2FC70168
:102AD0000E94260A0E94411917C04C2F4F706D2F7B
:102AE000C7010E94290A10C088E0C816D10441F02D
:102AF0005CF0EAE0CE1AD108F2E0CF16D10420F45F
:102B00000E94B40F0E941D09BB20F1F00E949D1B82
:102B100080FD1AC0F70112820E94971B0E942F1A93
:102B2000C7010E94B2150E94971BDF91CF911F91A0
:102B30000F91FF90EF90DF90CF90BF907F906F90BC
:102B40005F904F900C94501ADF91CF911F910F918D
:102B5000FF90EF90DF90CF90BF907F906F905F904D
:102B60004F9008950F931F93CF93DF93EC018881CB
:102B700099812B813C81232BB9F09F3F11F48F3F2A
:102B800099F0CE010E943509882371F0688179811E
:102B90008A810E94741B8C010E94CC1A0E94CD195C
:102BA000B801CE010E943E13DF91CF911F910F918A
:102BB00008950E94CB1B0E94DB1B0E94F71B0E9402
:102BC0006B210E94432080E090E00E94231080E06F
:102BD00090E00C94391080910001909101010E94C5
:102BE000A91D0C94D9150E94BB1B0C94EB15E92F61
:102BF000E295EF70F0E03297EE30F105B0F4E35774
:102C0000FF4F0C94832E803F91F018F4803E68F4BF
:102C10000EC0843F51F40BC0803E48F0813F29F440
:102C200006C093FB882780F9089580E0089581E02D
:102C300008950E94691B0E94F7150895CF93DF93B2
:102C400000D000D01F92CDB7DEB70F900F900F903D
:102C50000F900F90DF91CF910895CF93DF9300D025
:102C600000D000D0CDB7DEB726960FB6F894DEBF01
:102C70000FBECDBFDF91CF9108951F93CF93DF9308
:102C8000C091650116E080916601C81799F0D0E007
:102C90001C9FF0011D9FF00D1124E959FE4F40814A
:102CA000518162817381848195810E942D162196C4
:102CB000C770E9CFDF91CF911F910895409197019F
:102CC000509198016091990170919A0180919B01B6
:102CD00090919C010C942D1680919C0182958F708F
:102CE00009F054C080919901882309F44FC0809164
:102CF0006501A091660160919701709198014091E2
:102D00009A0150919B01B6E08A1709F43FC090E008
:102D100041155105C1F17F3F11F46F3FA1F1B89FFB
:102D2000F001B99FF00D1124E959FE4F2181721372
:102D30002AC02081621327C02281211124C023814F
:102D400034812417350710F421503109241B350B29
:102D5000283C3105C0F420919C012F702061209304
:102D60009C0126E0289FF001299FF00D1124E459D1
:102D7000FE4F80818F708061808387E991E00E949F
:102D8000B2150C943D1601968770BECF0895CF9270
:102D9000DF92EF92FF920F931F93CF93DF93CDB704
:102DA000DEB762970FB6F894DEBF0FBECDBF8C01C1
:102DB00085E0F801DE011D9601900D928A95E1F7FC
:102DC000D8014C9111965C91119712966C911297C3
:102DD0001396CD90DC9014973091970170919801E3
:102DE00080919A0190919B01009709F46BC17F3FFC
:102DF00019F43F3F09F466C1E0909901EE2009F40F
:102E0000C0C020919C01C816D90628F0F601E81B25
:102E1000F90BCF0104C0809590958C0D9D1DFF246A
:102E2000F394883C910578F0F12C207F09F0C6C01E
:102E30007C2DD98AC88A89890E941E1687E991E06B
:102E40000E94B215B1C0822F807F09F046C0751371
:102E500014C0341312C0611110C02F702061209370
:102E60009C010E945E1687E991E00E94B215809154
:102E70009C01D80115968C932EC0CD2819F15F3F87
:102E800011F44F3FF9F0F62E61111CC080916501DD
:102E90002091660136E0821709F45AC090E0389F0D
:102EA000F001399FF00D1124E959FE4F718157133C
:102EB00006C07081471303C07281711103C001966F
:102EC0008770E9CFF62E662309F427C180919C0113
:102ED000816080939C01F12C20C1751308C03413CC
:102EE00006C0611104C080919C01D801C3C04D8708
:102EF0005E878D859E856A8B0E9419166A89882354
:102F0000E1F16623D1F120919C01822F82958F708F
:102F100090E0029774F080919701909198019887C2
:102F20008F831986DB86CA862C87CE0107960E947E
:102F3000B21586E0F801A7E9B1E001900D928A95FB
:102F4000E1F70E946C160E945E16FF24F394E5C020
:102F50004D875E878D859E850E94691B292F22954E
:102F60002F7030E0223031050CF0CBC09F7009F09B
:102F7000C5C0805E883008F4D0C0C8010E94B21578
:102F8000E4CFC816D90608F453C0F601E81BF90BC4
:102F9000CF01883C910508F450C0F12C7C2DD98AD2
:102FA000C88A89890E941E16E7E9F1E086E0DF0100
:102FB0001D928A95E9F70E945E16AFC0751314C082
:102FC000341312C0611110C080919C01F8018583F7
:102FD000C8010E94B21586E0E7E9F1E0DF011D9229
:102FE0008A95E9F7FE2C99C04D875E878D859E8571
:102FF0006A8B0E9419166A89882309F4BECF66235A
:1030000009F4BBCF20919C01822F82958F7090E0B4
:1030100002970CF48ECF80919701909198019A833A
:1030200089831B82DD82CC822E83CE0101967FCFE5
:10303000809590958C0D9D1DACCFF62E662309F4DE
:103040009CCF75132EC034132CC020919C0120FD01
:103050001FC0822F82958F70D9F0D80115962C93BE
:1030600015978F3049F08F5F982F9295907F822F20
:103070008F70892B15968C93C8010E94B21586E03B
:10308000F801A7E9B1E001900D928A95E1F793CF9D
:1030900086E0F801A7E9B1E001900D928A95E1F789
:1030A0003CC04D875E878D859E850E9419168111D3
:1030B00040CF80919C01816080939C01C8010E9457
:1030C000B2152BC0662309F458CF4D875E878D85D6
:1030D0009E850E941916F82E882309F44ECF86E0AB
:1030E000F801A7E9B1E001900D928A95E1F787E92F
:1030F00091E00E9481110E946C165DCF811139CF41
:103100000CC0243031050CF038CF9F7009F431CF5A
:10311000F8019581907F09F02CCF8F2D62960FB624
:10312000F894DEBF0FBECDBFDF91CF911F910F91FD
:10313000FF90EF90DF90CF9008951F93CF93DF9390
:10314000CDB7DEB72C970FB6F894DEBF0FBECDBF5C
:103150004F83588769877A878B879C87CE0107962C
:103160000E94C716882369F08F8198852A853B8540
:10317000232BF1F19F3F09F063C08F3F09F060C03E
:1031800037C086E0FE013796DE01119601900D9260
:103190008A95E1F76F817885EA85FB85309741F163
:1031A0007F3F11F46F3F21F12091660130E0C901AA
:1031B0000196877099274091650150E08417950723
:1031C00009F447C069837A83FD83EC8396E0929F7C
:1031D000D001939FB00D1124A959BE4FFE01319625
:1031E00001900D929A95E1F7809366010E943D1639
:1031F00016E080916501909166018917C1F1189FD1
:10320000C001112489599E4F0E94C716882379F165
:10321000E09165011E9FF0011124E959FE4F4081A4
:10322000518162817381848195810E942D168091E4
:10323000650190E001968770992780936501D9CF49
:103240004F81588569857A858B859C850E942D16CE
:10325000CFCF0E94F3151092660110926501E7E945
:10326000F1E086E0DF011D928A95E9F7C1CF2C9647
:103270000FB6F894DEBF0FBECDBFDF91CF911F9187
:103280000895EF92FF920F931F93CF93DF938C01DA
:10329000892B09F46CC0F12CEE24E394E80121960B
:1032A000F8018491843740F4843008F051C08130B3
:1032B00081F0823019F15BC0853709F444C0A8F170
:1032C0009CE7980F903708F052C08F770E94C01289
:1032D00041C00E5F1F4FFE01C49180E28C0F883009
:1032E00048F4C7708E2D01C0880FCA95EAF70E9476
:1032F000CE1B14C08C2F0E9487112DC00E5F1F4F54
:10330000FE01C49180E28C0F883058F4C7708E2D76
:1033100001C0880FCA95EAF70E94D41B0E94F71BD0
:103320001AC08C2F0E94C01216C00E5F1F4FFE01E4
:10333000C491CC2381F08FE99FE00197F1F700C0A1
:103340000000C150F6CF0E5F1F4FFE01F49003C086
:103350000E9487118E018F2D882309F49FCFEFE9FA
:10336000FFE03197F1F700C000008150F5CFDF9109
:10337000CF911F910F91FF90EF90089508950C94B5
:10338000BE190E94BF196093BF017093C001809362
:10339000C1019093C2010C94D91508950C94C119E0
:1033A0000F931F930091BF011091C0012091C101A3
:1033B0003091C201602B712B822B932B1F910F91A7
:1033C0000C94C1190F931F930091BF011091C0017C
:1033D0002091C1013091C201602371238223932384
:1033E0001F910F910C94C1190F931F930091BF016E
:1033F0001091C0012091C1013091C2016027712755
:10340000822793271F910F910C94C11908950C9452
:10341000061A0E94071A6093BB017093BC01809347
:10342000BD019093BE010C94D91560E070E0CB0112
:103430000C94091A0F931F9341E050E060E070E094
:103440008A019B0104C0000F111F221F331F8A95A0
:10345000D2F7C901B8011F910F910C94091A0F936B
:103460001F9341E050E060E070E004C0440F551F3E
:10347000661F771F8A95D2F78091BB019091BC019E
:10348000A091BD01B091BE018A019B01082B192BAF
:103490002A2B3B2BC901B8011F910F910C94091ADB
:1034A0000F931F9341E050E060E070E004C0440FD0
:1034B000551F661F771F8A95D2F7409550956095E6
:1034C00070958091BB019091BC01A091BD01B0911C
:1034D000BE018A019B01082319232A233B23C9012A
:1034E000B8011F910F910C94091A0F931F9341E09B
:1034F00050E060E070E004C0440F551F661F771F66
:103500008A95D2F78091BB019091BC01A091BD0139
:10351000B091BE018A019B01082719272A273B2762
:10352000C901B8011F910F910C94091A0F931F93B1
:103530000091BB011091BC012091BD013091BE01F1
:10354000602B712B822B932B1F910F910C94091AD6
:103550000F931F930091BB011091BC012091BD01FD
:103560003091BE0160237123822393231F910F9119
:103570000C94091A0F931F930091BB011091BC0189
:103580002091BD013091BE016027712782279327CA
:103590001F910F910C94091A08952BE0929F800DB2
:1035A0001124A82FA695A695A695877051E001C075
:1035B000550F8A95EAF785E0A89FD001112420E0F5
:1035C00030E070E0F901EA0FFB1FE356FE4F408147
:1035D000CB01022E02C0969587950A94E2F781707E
:1035E0009927819584278523842780832F5F3F4FE8
:1035F0002530310539F708952BE0929F800D112475
:10360000682F669566956695982F977085E0689FF8
:10361000B001112440E050E080E0FA01E60FF71F0E
:10362000E356FE4F208130E0092E02C036952795E3
:103630000A94E2F721703327042E01C0220F0A9466
:10364000EAF7822B4F5F5F4F4530510531F7089500
:10365000BF92CF92DF92EF92FF920F931F93CF937F
:10366000DF938C01C090BF01D090C001E090C101F8
:10367000F090C2018091BB019091BC01A091BD016D
:10368000B091BE01C82AD92AEA2AFB2ACFE1D0E0AC
:10369000D701C6010C2E04C0B695A79597958795BE
:1036A0000A94D2F780FF07C0BC2EB8018C2F0E946D
:1036B000440A019719F4219758F7B12C8B2DDF910B
:1036C000CF911F910F91FF90EF90DF90CF90BF901F
:1036D0000895CF93DF93EC010E94281BBE010E9446
:1036E000440ADF91CF9108951F93CF93DF93EB01AD
:1036F00090916401992321F0CB010E94691B13C0B2
:10370000882349F0CB010E94281B182F682FCE0177
:103710000E94CD1A04C0CB010E94FC1A182FBE01D2
:10372000812F0E94440ADF91CF911F9108958091CB
:10373000C30185958595859508958091C30187700E
:1037400008959091C301977081E009F480E0089595
:103750008091E70108959091E701892B8093E7011B
:10376000089580959091E70189238093E70108955A
:103770008093E70108951092E70108959091E60182
:10378000892B8093E601089580959091E601892325
:103790008093E60108951092E60108959091E50165
:1037A000892B8093E501089580959091E501892307
:1037B0008093E50108951092E50108958091C40178
:1037C000089508950C94E11B9091C401981721F07D
:1037D0008093C4010C94E21B08958091C401882356
:1037E00029F01092C40180E00C94E21B0895E0914E
:1037F0000001F09101018091E7018083E0910001D7
:10380000F091010190818091E601892B8083E09104
:103810000001F091010190818091E501892B808365
:103820008091C401882381F0E0910001F0910101B1
:103830009081892B808380910001909101010E94E9
:103840000C1D81110E94ED1B8091000190910101DE
:103850000C94C00F08950C942A1C98E0899F900145
:103860001124262B2093C3010E942F1A8091C3019B
:103870008595859585950C942B1C1092C30180E04D
:103880000C942B1C2091C301809582238093C3014B
:10389000982F977079F430E0482F082E000C550BC4
:1038A0002417350739F08595859585950E94501A1E
:1038B0000C943D1C089590933D0180933C01089524
:1038C0008295982F9C7C392F36953695282F237317
:1038D00044E0249FC0011124932F982B292F2A7A8A
:1038E0002695892F8575880F822B08951F93CF9376
:1038F000DF931F92CDB7DEB799830E94601C182F0B
:103900009981892F0E94601C212F30E0322F2227BD
:10391000A901482BCA010F90DF91CF911F91089503
:1039200080E090E00E94A52E21E08D3E9E4F09F0A0
:1039300020E0822F089582E090E00C949D2E83E099
:1039400090E00C949D2E84E090E00C949D2E682FC6
:1039500084E090E00C94AB2EAB01BC018FE090E0D2
:103960000C94BD2EAB01BC0183E190E00C94BD2E04
:1039700060E070E0CB010C94B21C60E070E0CB0121
:103980000E94AC1C0C94B81C6DEE7EEF80E090E0C1
:103990000E94C92E60E082E090E00E94AB2E60E0C1
:1039A00083E090E00E94AB2E1092BF011092C00104
:1039B0001092C1011092C20160E084E090E00E9488
:1039C000AB2E60E085E090E00E94AB2E60E086E0E8
:1039D00090E00E94AB2E6FEF87E090E00E94AB2E4C
:1039E00040E050E0BA0188E090E00E94BD2E60E027
:1039F0008DE090E00E94AB2E40E050E0BA0188E1FB
:103A000090E00E94BD2E60E087E190E00E94AB2E26
:103A10000C94BD1C0C94C41CFC01329680911201C4
:103A2000882331F08091270287FF02C09EE101C008
:103A300096E080E0915028F021912223D9F38F5F06
:103A4000F9CF08959C01FC0132969FEF80E04191EF
:103A5000461789F09F3F19F4411101C0982F8F5FDD
:103A60008630A9F79F3F39F0F901E90FF11D97FD65
:103A7000FA95628308950895FC0132960896208194
:103A8000261301C010823196E817F907C1F708958F
:103A9000262F2695269526952E3170F4FC01E20FEF
:103AA000F11D677021E030E001C0220F6A95EAF74E
:103AB0008281282B228308958091E80180FF0CC029
:103AC0001F926F9389E993E09F938F930E94200840
:103AD0000F900F900F900F900895262F2695269502
:103AE00026952E3178F4FC01E20FF11D677021E07C
:103AF00030E001C0220F6A95EAF7209582812823E1
:103B0000228308958091E80180FF0CC01F926F937B
:103B10008BE793E09F938F930E9420080F900F9064
:103B20000F900F90089520911201222329F02091E7
:103B3000270227FD0C94481D0C94221D2091120190
:103B4000222329F02091270227FD0C946D1D0C944F
:103B50003C1D20911201FC013296222331F080910C
:103B6000270287FF02C08EE101C086E0DF011D92BF
:103B70008A95E9F7089508950C94BB1D0E94BC1D19
:103B800080912D02843049F11092E90120E488E10E
:103B900090E00FB6F894A895809360000FBE209334
:103BA000600080E00E941D090E94BC1D83B7817FD8
:103BB000846083BF83B7816083BF7894889583B71F
:103BC0008E7F83BF0FB6F894A895809160008861BE
:103BD00080936000109260000FBE089508950895CC
:103BE000CF930E94EE1D0E944F0D0E94EF1DC0E07A
:103BF0008C2F0E94A10C892B29F4CF5FC430C1F710
:103C000080E001C081E0CF91089508950C94051ED5
:103C10000E94F3150E94B40F0E941D090C94061E09
:103C20001F920F920FB60F9211248F939F93AF9311
:103C3000BF938091E901811113C08091230290917B
:103C40002402A0912502B09126024196A11DB11D2A
:103C50008093230290932402A0932502B09326021E
:103C6000BF91AF919F918F910F900FBE0F901F90BA
:103C7000189582E084BD93E095BD9AEF97BD80933F
:103C80006E0008952FB7F89480912302909124023A
:103C9000A0912502B09126022FBF08952FB7F89466
:103CA0006091230270912402809125029091260256
:103CB0002FBF0895CF92DF92EF92FF920F931F9341
:103CC0002FB7F8944091230250912402609125026D
:103CD000709126022FBF6A017B01EE24FF248C0124
:103CE00020E030E0C016D106E206F30610F44150A1
:103CF00051099A01281B390BC9011F910F91FF909F
:103D0000EF90DF90CF90089578941F920F920FB6A6
:103D10000F9211248F939F93AF93BF9380912302AF
:103D200090912402A0912502B09126020196A11D36
:103D3000B11D8093230290932402A0932502B09397
:103D40002602BF91AF919F918F910F900FBE0F9060
:103D50001F90189587E797E79093010880930008D4
:103D60009AE088E10FB6F894A895809360000FBEA2
:103D700090936000FFCF0E94901C811102C00E94AE
:103D80000A1D0E949B1C8093E8010E94A31C90E0E6
:103D900090932802809327020E949F1C682F70E056
:103DA00080E090E00C94CE198091ED0180FF0BC073
:103DB0006091050185E0689FB001112475956795B4
:103DC000759567952BC081FF09C06091050185E05D
:103DD000689FB00111247595679520C082FF07C0C8
:103DE0006091050185E0689FB001112417C0909192
:103DF000EC019923D1F060910401961788F7209186
:103E0000050185E0289F90011124929FA001939FB6
:103E1000500D112470E0CA010E946F2E60387105A8
:103E200040F46115710539F002C065E070E0862F3D
:103E300008958FE7089581E008958091ED0180FF56
:103E400008C06091030170E0759567957595679559
:103E500021C081FF06C06091030170E075956795F0
:103E600019C082FF04C06091030170E010C09091FE
:103E7000EC019923C1F0609102019617A0F780919F
:103E80000301899FC001112470E00E946F2E6038E9
:103E9000710528F46115710521F0862F08958FE7CB
:103EA000089581E0089561E070E0F4CF803F21F44F
:103EB0000E94D41E819504C0813F29F40E94D41E23
:103EC0008093F1010895823F21F40E94D41E8195D0
:103ED00004C0833F29F40E94D41E8093F00108950A
:103EE000893F19F40E941D1F05C08A3F31F40E94CA
:103EF0001D1F81958093F20108958B3F21F40E944C
:103F00001D1F819504C08C3F29F40E941D1F8093C2
:103F1000F3010895843F21F48091EF01816017C07F
:103F2000853F21F48091EF01826011C0863F21F42A
:103F30008091EF0184600BC0873F21F48091EF01F5
:103F4000886005C0883F31F48091EF0180618093E3
:103F5000EF0108958D3F21F48091ED0181600BC048
:103F60008E3F21F48091ED01826005C08F3F29F4DE
:103F70008091ED0184608093ED010895803F39F4D4
:103F80008091F10187FF6CC01092F10169C0813FFF
:103F900029F48091F1011816BCF362C09091F001F0
:103FA000823F29F497FF5CC01092F00159C0833F13
:103FB00019F41916CCF354C0893F41F48091F201F1
:103FC00018160CF04DC01092F2014AC08A3F29F435
:103FD0008091F20187FF44C0F6CF8B3F39F4809186
:103FE000F30187FF3DC01092F3013AC08C3F29F4E2
:103FF0008091F3011816BCF333C0843F21F4809103
:10400000EF018E7F17C0853F21F48091EF018D7FF6
:1040100011C0863F21F48091EF018B7F0BC0873F59
:1040200021F48091EF01877F05C0883F31F48091B2
:10403000EF018F7E8093EF0113C08D3F21F48091BB
:10404000ED018E7F0BC08E3F21F48091ED018D7FBD
:1040500005C08F3F29F48091ED018B7F8093ED01A6
:104060008091F00181110EC08091F10181110AC08F
:104070008091F201811106C08091F301811102C08B
:104080001092EC0108958091E80183FF7EC08EEDCF
:1040900093E00E9487078091EF011F928F9389ED33
:1040A00093E09F938F930E94200887ED93E00E94F6
:1040B00087078091F001282F082E000C330B3F93C7
:1040C0008F9384ED93E09F938F930E94200882ED5D
:1040D00093E00E9487078091F101282F082E000CA1
:1040E000330B3F938F938FEC93E09F938F930E94BA
:1040F00020088DEC93E00E9487078091F201282F21
:10410000082E000C330B3F938F938AEC93E09F9320
:104110008F930E94200888EC93E00E94870780918B
:10412000F301282F082E000C330B3F938F9385EC5F
:1041300093E09F938F930E94200882EC93E00E946B
:1041400087078091EC011F928F938FEB93E09F93F1
:104150008F930E9420088DEB93E00E948707809147
:10416000ED011F928F938AEB93E09F938F930E94B0
:10417000200887EB93E00E9487078DB79EB74C9687
:104180000FB6F8949EBF0FBE8DBF8EEE91E00E94D9
:1041900015100E94421E9093EB018093EA0108954E
:1041A0001F93CF93DF938091EA019091EB010E94DE
:1041B0005A1EAC019091EC01992321F02091060147
:1041C00030E006C0209107018AE0289F9001112469
:1041D0004217530708F47BC08091F001C091F101B0
:1041E000D091F2011091F301811107C0C1116BC090
:1041F000D11169C0111167C06AC09F3F19F09F5F5C
:104200009093EC01181624F40E94D41E8093F001C0
:104210008091F00187FF05C00E94D41E8195809394
:10422000F0011C1624F40E94D41E8093F1018091A9
:10423000F10187FF05C00E94D41E81958093F10192
:104240003091F0013323E1F02091F1012223C1F0FC
:1042500045EB3403C0011124892F990F990B009766
:1042600009F481E08093F00135EB2303C0011124B0
:10427000892F990F990B009709F481E08093F10140
:104280001D1624F40E941D1F8093F2018091F201FB
:1042900087FF05C00E941D1F81958093F2011116B2
:1042A00024F40E941D1F8093F3018091F30187FF86
:1042B00005C00E941D1F81958093F301DF91CF916E
:1042C0001F910C9443209F3F09F099CFA1CFDF911C
:1042D000CF911F910895EEEEF1E086E0DF011D928F
:1042E0008A95E9F71092EC011092ED01089581E0B2
:1042F00096E00E9487071F9281E08F931F9285E0CE
:104300008F9383EB95E09F938F930E9420080F90EB
:104310000F900F900F900F900F9008958330E9F158
:1043200028F4813061F0823009F10895853009F474
:1043300062C008F449C0863009F474C008958091C1
:104340000701262F30E0280F311D2F3F310524F4BF
:10435000680F6093070103C08FEF8093070180917E
:1043600007011F928F938CEE94E072C0809106013A
:10437000262F30E0280F311D2F3F310524F4680F20
:104380006093060103C08FEF8093060180910601C0
:104390001F928F938AED94E05BC080910501262FD8
:1043A00030E0280F311D2F3F310524F4680F609352
:1043B000050103C08FEF80930501809105011F92D5
:1043C0008F9387EC94E044C080910401262F30E065
:1043D000280F311D2F3F310524F4680F609304012D
:1043E00003C08FEF80930401809104011F928F938B
:1043F00082EB94E02DC080910301262F30E0280F3E
:10440000311D2F3F310524F4680F6093030103C071
:104410008FEF80930301809103011F928F9389E9AD
:1044200094E016C080910201262F30E0280F311D44
:104430002F3F310524F4680F6093020103C08FEF12
:1044400080930201809102011F928F938EE794E086
:104450009F938F930E9420080F900F900F900F90C2
:104460000895833081F128F4813059F08230D1F001
:104470000895853009F449C0B8F1863009F456C072
:10448000089580910701681720F4861B8093070127
:1044900002C010920701809107011F928F938FE64F
:1044A00094E054C080910601681720F4861B809325
:1044B000060102C010920601809106011F928F939F
:1044C0008DE594E043C080910501681720F4861BB8
:1044D0008093050102C010920501809105011F9291
:1044E0008F938AE494E032C080910401681720F42D
:1044F000861B8093040102C0109204018091040184
:104500001F928F9385E394E021C080910301681787
:1045100020F4861B8093030102C010920301809156
:1045200003011F928F938CE194E010C080910201EF
:10453000681720F4861B8093020102C010920201CA
:10454000809102011F928F9381E094E09F938F935B
:104550000E9420080F900F900F900F900895CF9316
:10456000C82F1F928F9386E097E09F938F930E94AE
:10457000200881E090E0A0E0B0E0BC01CD0104C0E3
:10458000660F771F881F991FCA95D2F70E94CE1910
:104590000F900F900F900F90CF910C94F315CF9335
:1045A000482F50E0FA013597EF33F10508F03BC290
:1045B000E556FF4F0C94832E8CE69CE00E94870703
:1045C00088EA9BE00E9487070E949F1C1F928F939E
:1045D00085EA9BE09F938F930E94200883EA9BE0EB
:1045E0000E9487070E949B1CC82F80E99BE00E94C5
:1045F00087071F92CF938BE89BE09F938F930E9436
:10460000200889E89BE00E9487078FE79BE00E94D3
:1046100087078C2F81701F928F938CE79BE09F936D
:104620008F930E9420088AE79BE00E94870780E71B
:104630009BE00E948707C1FB882780F91F928F9318
:104640008DE69BE09F938F930E9420088BE69BE072
:104650000E9487078FE59BE00E948707C2FB88279F
:1046600080F91F928F938CE59BE09F938F930E941C
:1046700020088AE59BE00E94870781E59BE00E9475
:104680008707C3FBCC27C0F91F92CF938EE49BE032
:104690009F938F930E9420088CE49BE00E948707E1
:1046A0000E94A31CC82F88E39BE00E9487071F92EB
:1046B000CF9383E39BE09F938F930E94200881E335
:1046C0009BE00E94870788E19BE00E9487078C2F70
:1046D00081701F928F9385E19BE09F938F930E943F
:1046E00020088DB79EB780960FB6F8949EBF0FBE78
:1046F0008DBF83E19BE00E9487078CEF9AE00E94C8
:104700008707C1FB882780F91F928F9389EF9AE072
:104710009F938F930E94200887EF9AE00E9487075B
:1047200085EE9AE00E948707C2FB882780F91F92D6
:104730008F9382EE9AE09F938F930E94200880EEE1
:104740009AE00E9487078EEC9AE00E948707C3FBDD
:10475000882780F91F928F938BEC9AE09F938F9319
:104760000E94200889EC9AE00E9487078FEB9AE06C
:104770000E948707C4FB882780F91F928F938CEBD8
:104780009AE09F938F930E9420088AEB9AE00E9400
:10479000870788EA9AE00E948707C5FB882780F987
:1047A0001F928F9385EA9AE09F938F930E9420082F
:1047B00083EA9AE00E94870787E89AE00E948707C9
:1047C000C6FB882780F91F928F9384E89AE09F9315
:1047D0008F930E94200882E89AE00E9487078AE768
:1047E0009AE00E948707C7FBCC27C0F91F92CF939E
:1047F00087E79AE09F938F930E94200885E79AE0CD
:104800000E9487078DB79EB74C960FB6F8949EBF4F
:104810000FBE8DBF06C08BE59CE00E9487070E94FB
:104820000A1DC1E005C183EC98E07FC08091E801DA
:10483000817F8E7F8093E8018CE998E00E94870752
:1048400087E59CE00E94870781E08093F501E9CF2E
:104850000E94F3158BE39CE00E9487079FEF23EDF6
:1048600080E3915020408040E1F700C000000E94AA
:10487000AA1ED7CF8091E801C82FC095C170C0FB98
:1048800080F98093E801CC2319F08FE29CE0BDC051
:1048900082E29CE00E9487078091E801897F877F00
:1048A0008093E801BECF9091E80191FBCC27C0F93D
:1048B00081E0C827892FC0FB81F98093E801CC23D0
:1048C00019F085E19CE027C087E09CE02EC0909124
:1048D000E80192FBCC27C0F981E0C827892FC0FBF3
:1048E00082F98093E801CC2319F088EF9BE013C094
:1048F00088EE9BE01AC09091E80193FBCC27C0F9A9
:1049000081E0C827892FC0FB83F98093E801CC237D
:1049100051F08CED9BE00E9487078091E801816057
:104920008093E80185C08FEC9BE00E94870779CFD8
:104930008DE898E00E94870782E698E00E9487074A
:1049400088E298E00E94870785EF97E00E9487073A
:104950008AEB97E00E9487078CE897E0E6CF8EE726
:1049600097E00E9487070E94B40F1F928F9384E6FE
:1049700097E09F938F930E942008809112011F92CD
:104980008F938DE497E09F938F930E9420088091EE
:104990001A021F928F938AE397E09F938F930E944E
:1049A00020088091270287FB882780F91F928F9328
:1049B00082E297E09F938F930E9420080E944E1EF0
:1049C0009F938F937F936F938BE097E09F938F9349
:1049D0000E9420088DB79EB746960FB6F8949EBFEA
:1049E0000FBE8DBF1ECF0E94F3159091270297FB3B
:1049F000CC27C0F981E0C827892FC0FB87F98093B5
:104A00002702CC2329F085EC9BE00E94870710C089
:104A10008AEB9BE08ACF895303C08D5101C080E0AF
:104A20000E94AF22FECE88EB9BE00E948707C0E089
:104A30008C2FCF91089580E0089580E008958E51E5
:104A40008A3030F4E82FF0E0EE5DFE4F808108956B
:104A500080E00895CF93C82F8091F501813059F0FF
:104A600020F0823009F445C039C10E94A81B82326F
:104A700009F036C104C00E94A81B823261F48C2F59
:104A80000E941B25811104C08C2F0E94CF222FC0B1
:104A900081E090E02CC08C2F0E941D25811126C042
:104AA000C431E1F070F4CB3081F0C031D1F40E9418
:104AB00077218EEF96E00E94870782E08093F501D0
:104AC00015C0C93259F0C83361F48CE998E00E94EE
:104AD000870782E097E00E94870708C01092F501DF
:104AE00001C18CEF96E00E948707FCC081E08170D5
:104AF000FBC0C43228F5CE3108F0C1C0CB30A1F1E3
:104B0000D0F4C73009F0D0C08EE18093070182E372
:104B1000809306018AE08093050184E1809304017B
:104B200088E08093030188E28093020182EA95E0A5
:104B30000E948707BCC0C33149F1C431C1F0B4C081
:104B4000CB3409F4A6C028F4C93289F0C83361F027
:104B5000ABC0C13509F49BC0C23509F496C0CE3450
:104B600009F0A2C06AE09BC00E947721A0C080919A
:104B7000F401882319F01092F40199C08FEA95E0AE
:104B80000E94870781E08093F501AEC089E895E037
:104B90000E94870787E795E00E94870780910701B9
:104BA0001F928F9384E795E09F938F930E94200834
:104BB00082E795E00E94870780E695E00E948707DC
:104BC000809106011F928F938DE595E09F938F93BF
:104BD0000E9420088BE595E00E9487078CE495E011
:104BE0000E948707809105011F928F9389E495E0C9
:104BF0009F938F930E94200887E495E00E94870787
:104C000086E395E00E948707809104011F928F93AD
:104C100083E395E09F938F930E94200881E395E0C2
:104C20000E9487078CE195E00E948707809103012D
:104C30001F928F9389E195E09F938F930E942008A4
:104C400087E195E00E94870780E095E00E94870752
:104C5000809102011F928F938DEF94E09F938F9329
:104C60000E9420088BEF94E00E9487078DB79EB7C3
:104C700048960FB6F8949EBF0FBE8DBF18C08C2FFC
:104C80000E941F258093F40112C061E003C061E01F
:104C900006C06AE08091F4010E948E2108C08091D4
:104CA000F4010E94312203C080EA95E013C0809194
:104CB000F401882369F01F928F938AE995E09F930E
:104CC0008F930E9420080F900F900F900F9004C0B8
:104CD00087E995E00E94870781E006C01092F50100
:104CE00080E002C080E003CFCF9108958091190247
:104CF00008959FB7F8941092F8019FBF90912D02EC
:104D0000943009F057C09091E9009F703091EC0009
:104D1000232F217030FD20E8922B23E02093E9001F
:104D20002091EB0020FF43C02091EE0027FF3FC001
:104D30002091F601222321F02091E80025FF37C0C1
:104D40001092F60126E03091E80035FD15C0309153
:104D50002D02343061F53091EB0035FD28C0215033
:104D600021F481E08093F60122C0EFE9FFE0319762
:104D7000F1F700C00000E7CF8093F1008091E800D8
:104D800085FD0AC08091E80080FFFCCF8091E8009B
:104D90008E778093E80006C08FB7F89421E02093C7
:104DA000F8018FBF9F709093E90080E008959F7095
:104DB0009093E9008FEF08950F931F93CF93DF93A4
:104DC00000D01F92CDB7DEB78C010E94AB29823094
:104DD00011F0843021F584E089831B830A8382E00B
:104DE0008093E9008FEF9091E800815095FD06C017
:104DF00095ED9A95F1F700008111F5CF8091E800CB
:104E000085FF0DC040E050E063E070E0CE01019608
:104E10000E94C8298091E8008E778093E8000F9067
:104E20000F900F90DF91CF911F910F910895CF9325
:104E3000DF9300D01F92CDB7DEB720912D02243032
:104E400031F523E02983805891099B838A8382E08E
:104E50008093E9008FEF9091E800815095FD06C0A6
:104E600095ED9A95F1F700008111F5CF8091E8005A
:104E700085FF0DC040E050E063E070E0CE01019698
:104E80000E94C8298091E8008E778093E8000F90F7
:104E90000F900F90DF91CF910895CF93DF93EC01A6
:104EA0000E94AB29823011F08430F9F482E08093C3
:104EB000E9009FEF8091E800915085FD06C085EDE7
:104EC0008A95F1F700009111F5CF8091E80085FFF8
:104ED0000CC040E050E066E070E0CE010E94C829BE
:104EE0008091E8008E778093E800DF91CF9108955C
:104EF000CF93DF93EC010E94AB29823011F0843014
:104F0000D9F580911201882339F08091270287FF1B
:104F100003C060E282E002C068E081E08093E900C3
:104F20008FEF9091E800815095FD06C095ED9A9520
:104F3000F1F700008111F5CF8091E80085FF1CC0DA
:104F400080911201811105C040E050E068E070E0FE
:104F500003C070E040E050E0CE010E94C82980917B
:104F6000E8008E778093E80080E2FE01A9EFB1E0CF
:104F700001900D928A95E1F7DF91CF9108958CE928
:104F80009CE00E94870780912C02811109C00E9439
:104F90005D2B0E94BA2B8091E20084608093E20036
:104FA000089588E99CE00E94870710922C020895DA
:104FB00084E99CE00C94870780E99CE00C948707C7
:104FC0008CE89CE00E9487070C94081E2091F70152
:104FD0002F5F822F62E30E94632E992319F02093A2
:104FE000F70108951092F7018091F801882371F17B
:104FF00080912D02843041F58091E9008F702091DD
:10500000EC00922F917020FD90E8892B93E0909313
:10501000E9009091EB0090FF14C09091EE0097FF93
:1050200010C09091E80095FF03C01092F100F9CFF5
:105030009091E80090FF05C09091E8009E779093D2
:10504000E8008F708093E9001092F801089542E023
:1050500061EC81E00E94D72A42E261EC82E00E948A
:10506000D72A42E261EC83E00C94D72A80912F0288
:10507000833009F460C030F4813071F0823009F47B
:1050800099C008958A3009F485C08B3009F46BC04B
:10509000893009F0A7C020C080912E02813A09F022
:1050A000A1C08091E800877F8093E8008091320260
:1050B00090913302892B21F460E289EF91E003C0E3
:1050C00060E080E090E070E00E94132A8091E800A8
:1050D0008B778093E800089580912E02813209F049
:1050E00081C08091320290913302029708F07AC019
:1050F0008091E800877F8093E8008091E80082FD3E
:1051000005C080912D028111F8CF6CC02091F30071
:105110008091F20090E0922B029729F48091F100A7
:105120008B7F813021F48091F1008093190280916E
:10513000E8008B7753C080912E02813A09F052C06B
:105140008091320290913302892B09F04BC08091FB
:10515000E800877F8093E8008091E80080FFFCCF23
:105160008091120136C080912E028132D9F5809152
:10517000320290913302892BA9F58091E800877F54
:105180008093E8000E940C2B8091300280931201E2
:105190000C94F31580912E02813221F58091E80064
:1051A000877F8093E8000E940C2B809131028093CE
:1051B0001A02089580912E02813AA1F48091E800AC
:1051C000877F8093E8008091E80080FFFCCF80918A
:1051D0001A028093F1008091E8008E778093E800B6
:1051E0000C940C2B089584B7877F84BF0FB6F89476
:1051F000A8958091600088618093600010926000A3
:105200000FBE80E880936100109261000E945D10E3
:105210000E945D2B0E94BA2B8091E20084608093F3
:10522000E20089E796E20E945B1C78940E94482E77
:105230000E94651088E091E00E94AF0F8BE79CE030
:105240000E94870780912D02853089F487E79CE0D2
:105250000E9487070E94BE1D80912B02882391F334
:105260000E94F01D882371F30E94B229EBCF0E94A7
:105270009510E8CF0C943C29292F33272330310592
:10528000C9F064F42130310581F02230310509F094
:1052900049C08BE590E024ED3CE048C02132310567
:1052A00021F12232310571F13DC082E190E02FE21F
:1052B0003DE03CC099278130910571F02CF4892B99
:1052C00089F5E0EDFCE00DC08230910541F00397D7
:1052D00049F5E0EAFCE005C0E6EBFCE002C0E6EAE6
:1052E000FCE0849190E09F0121C063307105D0F40F
:1052F000660F771FFB01EB5CFE4F2081318189E057
:1053000090E014C06330710568F4FB01EE0FFF1FDD
:10531000E15DFE4F20813181FB01E45DFE4F808124
:1053200090E004C080E090E020E030E0FA013183BA
:10533000208308950895CF93C82F0E949A29C0937F
:105340001B02CF91089580912D02843011F081E0ED
:10535000089582E0089580911B02811102C00C948F
:10536000A329089580E189BD82E189BD09B400FEC9
:10537000FDCF8091D8008F7D8093D8008091E00090
:1053800082608093E0008091E00081FDFCCF089571
:10539000CF92DF92EF92FF920F931F93CF93DF9301
:1053A000EC018B016A010E942B2B811133C0C114C7
:1053B000D10439F0F60180819181081B190BC80FC7
:1053C000D91FE12CF12C0115110519F18091E8008C
:1053D00085FD16C08091E8008E778093E800C114A7
:1053E000D10449F0F60180819181E80EF91EF18225
:1053F000E08285E00FC00E942B2B882321F30AC096
:1054000089918093F10001501109FFEFEF1AFF0A13
:10541000DACF80E0DF91CF911F910F91FF90EF9055
:10542000DF90CF90089520913402309135022617F5
:10543000370748F06115710539F42091E8002E779F
:105440002093E80001C0B90140E061157105A9F1A0
:1054500020912D02222309F443C0253009F442C0D3
:105460002091E80023FD40C02091E80022FD32C0D9
:105470002091E80020FFE9CF4091F3002091F20055
:1054800030E0342BFC01CF016115710559F0283053
:10549000310540F481918093F100615071092F5FD3
:1054A0003F4FF1CF41E02830310509F040E0209135
:1054B000E8002E772093E800C8CF4111C9CF0AC079
:1054C00080912D02882361F0853061F08091E800A1
:1054D00083FD0AC08091E80082FFF2CF80E008954A
:1054E00082E0089583E0089581E0089520913402D8
:1054F000309135022617370748F06115710539F4E8
:105500002091E8002E772093E80001C0B901FC014A
:1055100020E06115710591F180912D02882309F435
:1055200040C0853009F43FC08091E80083FD3DC054
:105530008091E80082FD2FC08091E80080FFE9CFD4
:105540002091F3008091F20090E0922B611571059B
:1055500059F08830910540F424912093F100319660
:10556000615071090196F2CF21E0089709F020E01F
:105570008091E8008E778093E800CBCF2111CCCFCB
:105580000AC080912D02882361F0853061F08091FE
:10559000E80083FD0AC08091E80082FFF2CF80E03E
:1055A000089582E0089583E0089581E00895982F9A
:1055B000973058F59093E900981739F07091EC0006
:1055C0002091ED005091F00003C0242F762F50E081
:1055D00021FF19C03091EB003E7F3093EB003091FA
:1055E000ED003D7F3093ED003091EB003160309362
:1055F000EB007093EC002093ED005093F0002091AD
:10560000EE0027FF07C09F5FD3CF8F708093E90024
:1056100081E0089580E0089580912E0287FF11C0F7
:105620008091E80082FD05C080912D028111F8CFA4
:1056300011C08091E8008B770BC080912D028823E8
:1056400049F08091E80080FFF8CF8091E8008E77E4
:105650008093E80008952091E4003091E50095E6FC
:105660004091EC00842F817040FF22C08091E800BF
:1056700080FD1CC080912D02882391F0853091F02F
:105680008091EB0085FD10C04091E4005091E50051
:105690004217530729F39A01915011F784E00895B6
:1056A00082E0089583E0089581E0089580E0089500
:1056B0004091E80042FFDECF08950E94CB2B0E946C
:1056C000D32BE0EEF0E0808181608083E8EDF0E0B4
:1056D00080818F77808319BCA7EDB0E08C918E7F9D
:1056E0008C9380818F7E808310922C0208950F937B
:1056F0001F93CF93DF930E94CB2B0E94D32BC8ED37
:10570000D0E088818F7788838881806888838881CA
:105710008F7D888319BC10922D021092290210925D
:105720002B0210922A0200EE10E0F80180818B7F9C
:10573000808388818160888342E060E080E00E940D
:10574000D72AE1EEF0E080818E7F8083E2EEF0E008
:10575000808181608083808188608083F80180817E
:105760008E7F8083888180618883DF91CF911F91B4
:105770000F910895E8EDF0E080818F7E8083E7ED62
:10578000F0E080818160808384E082BF81E080934B
:105790002C020C94772BE8EDF0E080818E7F8083E3
:1057A0001092E20008951092DA001092E10008953C
:1057B0001F920F920FB60F9211242F933F934F9386
:1057C0005F936F937F938F939F93AF93BF93EF9369
:1057D000FF938091E10082FF0BC08091E20082FF85
:1057E00007C08091E1008B7F8093E1000E94E62753
:1057F0008091DA0080FF1FC08091D80080FF1BC01D
:105800008091DA008E7F8093DA008091D90080FF4A
:105810000DC080E189BD82E189BD09B400FEFDCFE4
:1058200081E080932D020E94BF2705C019BC109211
:105830002D020E94D1278091E10080FF19C0809144
:10584000E20080FF15C08091E2008E7F8093E2002D
:105850008091E20080618093E2008091D8008062B4
:105860008093D80019BC85E080932D020E94DC272C
:105870008091E10084FF30C08091E20084FF2CC061
:1058800080E189BD82E189BD09B400FEFDCF809130
:10589000D8008F7D8093D8008091E1008F7E809327
:1058A000E1008091E2008F7E8093E2008091E2002F
:1058B00081608093E20080912902882311F084E0C6
:1058C00007C08091E30087FD02C081E001C083E052
:1058D00080932D020E94E0278091E10083FF29C080
:1058E0008091E20083FF25C08091E100877F809353
:1058F000E10082E080932D02109229028091E10064
:105900008E7F8093E1008091E2008E7F8093E200A1
:105910008091E20080618093E20042E060E080E0FC
:105920000E94D72A8091F00088608093F0000E9446
:10593000D827FF91EF91BF91AF919F918F917F9168
:105940006F915F914F913F912F910F900FBE0F90EC
:105950001F9018951F920F920FB60F9211242F933C
:105960003F934F935F936F937F938F939F93AF93E7
:10597000BF93CF93DF93EF93FF93C091E900CF7074
:105980008091EC00D82FD17080FDD0E81092E90012
:105990008091F000877F8093F00078940E94EE2C35
:1059A0001092E9008091F00088608093F000CD2B88
:1059B000CF70C093E900FF91EF91DF91CF91BF913C
:1059C000AF919F918F917F916F915F914F913F9197
:1059D0002F910F900FBE0F901F9018951F93CF938C
:1059E000DF93CDB7DEB7AA970FB6F894DEBF0FBE30
:1059F000CDBFEEE2F2E088E08E0F9091F10091933E
:105A00008E13FBCF0E9436288091E80083FF28C1C7
:105A100080912E0290912F02492F50E04A3051057B
:105A200008F01EC1FA01E652FF4F0C94832E803815
:105A300021F0823809F014C108C080912A029091A7
:105A40002B02992389F082600FC0809132028F70FF
:105A5000873008F005C18093E9008091EB0085FB59
:105A6000882780F91092E9009091E800977F909341
:105A7000E8008093F1001092F100D0C0282F2D7F14
:105A800009F0EEC0882319F0823061F0E9C08091FE
:105A90003002813009F0E4C0933009F080E0809357
:105AA0002B022EC08091300281112AC080913202D7
:105AB0008F702FEF280F263008F0D2C08093E900B6
:105AC0002091EB0020FF1CC0933021F48091EB006B
:105AD000806214C09091EB0090619093EB0021E004
