:100000000C945E070C94A5070C94A5070C94A50707
:100010000C94A5070C94A5070C94A5070C94A507B0
:100020000C94A5070C94A5070C94042C0C94D62CC6
:100030000C943C1E0C94A5070C94A5070C94A507E2
:100040000C94A5070C94A5070C94A5070C94A50780
:100050000C94A5070C94B01E0C94A5070C94A5074E
:100060000C94A5070C94A5070C94A5070C94A50760
:100070000C94A5070C94A5070C94A5070C94A50750
:100080000C94A5070C94A5070C94A5070C94A50740
:100090000C94A5070C94A5070C94A5070C94A50730
:1000A0000C94A5070C94A5070C94A507A909AB0906
:1000B000B609AD09AF09B109B309B509B809BA095B
:1000C000BC09C709BE09C009C209C409C609C909D2
:1000D000A013A013D213D21310143014A015A0151E
:1000E0007214A0151F151F159015A015A0159915B0
:1000F0002C152C152C152C152C152C152C152C15F8
:100100002C152C152C152C152C152C152C152C15E7
:100110003D154B155215591563152F162F164116FF
:10012000411638164116411641162F162F163D1648
:10013000411641163D1654244224662408233F25C7
:100140003F253F243F253F2593243F25A7241F25F6
:100150003F253F253F253F25DB243F253F25C42460
:100160003F257F243F253F25392539253925392548
:10017000392539253925392539253B253F2554246D
:1001800037243F253F253F253F253F253F253F2558
:100190003F253F253F253B253F253F253F243F2544
:1001A000372537253725372537253725372537256F
:1001B00037253B25432D6A2D5C2E6A2D5C2EB62DEE
:1001C000D92D5C2E2F2E3E2E14001A00080015008B
:1001D000170000001C0018000C001200130004009F
:1001E0001600070009000A0000000B000D000E00B9
:1001F0000F0033001D001B00060019000500E00081
:100200001100100036003700380029002B00E300F1
:10021000D75C2A00E6002C0001512D003400280094
:100220001E021F0252002F02300200004B00240069
:100230002500260025022002500051004F00210217
:1002400000004E002100220023002E022F0030006B
:10025000260227022402E00035001E001F002000B5
:10026000310002534900E300D85C4C00E6002C004A
:100270000100370027002E0049004A0052004D00BF
:100280004B000000520040004100420043004C007F
:10029000500051004F004E00000051003D003E0054
:1002A0003F0044000000A90000000000005CE000E6
:1002B00000003A003B003C0045000353AA00E30065
:1002C000D75C2A00E6002C0010504600470048008A
:1002D000E500070004000D001000000019000500F3
:1002E00017001B00E50000001400130016000F00AB
:1002F00000001A001C00180014000000000000009C
:10030000110008000600E0000E000A000C000000CA
:100310000000010000000B0015002F00E600300077
:1003200012001D000000000044454255473A206578
:100330006E61626C65642E0A000A002530313662F7
:10034000003A200025303258000A722F63203031E5
:1003500032333435363738394142434445460A0052
:10036000556E69636F646520696E707574206D6F7A
:1003700064652073657420746F3A2025750A0055F2
:100380006E69636F646520696E707574206D6F644B
:100390006520696E697420746F3A2025750A000A19
:1003A000002530325820006B6579626F6172645F9E
:1003B0007265706F72743A20000A0025303258005E
:1003C0006B6579626F6172645F7365745F6C65649D
:1003D0003A200064656C5F6B65795F6269743A20EE
:1003E00063616E27742064656C3A20253032580AA8
:1003F000006164645F6B65795F6269743A20636170
:100400006E2774206164643A20253032580A00292E
:100410000A002575002F002575005D280025640061
:100420002000256400200025640020002564007C55
:100430000025303258006D6F7573656B6579205BF0
:1004400062746E7C782079207620685D28726570F1
:100450002F61636C293A205B006D6B5F776865657F
:100460006C5F74696D655F746F5F6D6178203D20AE
:1004700025640A006D6B5F776865656C5F6D6178F8
:100480005F7370656564203D2025640A006D6B5FB5
:1004900074696D655F746F5F6D6178203D202564C0
:1004A0000A006D6B5F6D61785F7370656564203DF8
:1004B0002025640A006D6B5F696E74657276616CED
:1004C000203D2025640A006D6B5F64656C617920B6
:1004D0003D2025640A006D6B5F776865656C5F740D
:1004E000696D655F746F5F6D6178203D2025640ADA
:1004F000006D6B5F776865656C5F6D61785F7370C9
:10050000656564203D2025640A006D6B5F74696D2C
:10051000655F746F5F6D6178203D2025640A006D12
:100520006B5F6D61785F7370656564203D20256445
:100530000A006D6B5F696E74657276616C203D2098
:1005400025640A006D6B5F64656C6179203D202530
:10055000640A000A00257500363A20776865656CE4
:100560005F74696D655F746F5F6D61783A20000A32
:1005700000257500353A20776865656C5F6D617898
:100580005F73706565643A20000A00257500343A8F
:100590002074696D655F746F5F6D61783A20000A41
:1005A00000257500333A206D61785F73706565646E
:1005B0003A20000A00257500323A20696E7465728F
:1005C00076616C286D73293A20000A002575003188
:1005D0003A2064656C6179282A31306D73293A209C
:1005E000000A092D2056616C756573202D0A004D97
:1005F0003E004D25643E20003F0073657420646515
:100600006661756C740A00433E2000776865726508
:100610002064656C74613A20637572736F723D2556
:10062000642C20776865656C3D25640A53656520F8
:10063000687474703A2F2F656E2E77696B697065D8
:100640006469612E6F72672F77696B692F4D6F75C3
:1006500073655F6B6579730A000A092D204D6F750C
:1006600073656B6579202D0A4553432F713A0971E3
:100670007569740A313A0964656C6179282A3130E8
:100680006D73290A323A09696E74657276616C2855
:100690006D73290A333A096D61785F73706565641B
:1006A0000A343A0974696D655F746F5F6D61780A29
:1006B000353A09776865656C5F6D61785F73706561
:1006C00065640A363A09776865656C5F74696D65BB
:1006D0005F746F5F6D61780A0A703A097072696EB3
:1006E000742076616C7565730A643A0973657420C9
:1006F00064656661756C74730A75703A092B310A0A
:10070000646F776E3A092D310A706775703A092B5C
:1007100031300A7067646F776E3A092D31300A0AFA
:100720007370656564203D2064656C7461202A20C7
:100730006D61785F7370656564202A20287265702A
:10074000656174202F2074696D655F746F5F6D61E2
:1007500078290A003F004D3E2000433E20004C25F2
:10076000640A0074696D65725F7265616433322872
:10077000293A202530346C580A006B65796D617018
:100780005F636F6E6669672E6E6B726F3A202558D5
:100790000A006B6579626F6172645F69646C653AC7
:1007A0002025580A006B6579626F6172645F707210
:1007B0006F746F636F6C3A2025580A00686F73740A
:1007C0005F6B6579626F6172645F6C656473282921
:1007D0003A2025580A000A092D2053746174757354
:1007E000202D0A004743433A20342E392E3220412F
:1007F00056522D4C4942433A20312E382E307376D2
:100800006E204156525F415243483A20617672351C
:100810000A004F5054494F4E533A204C5546412000
:100820004D4F5553454B45592045585452414B4522
:100830005920434F4E534F4C4520434F4D4D414E51
:1008400044204E4B524F20343039360A004255492D
:100850004C443A2022302E362E3336362D312D6739
:1008600036306561653722202830333A31313A31EC
:1008700033204D61792020382032303139290A0067
:100880005649443A2030783132303928546563680B
:100890006E6F6D616E637929205049443A2030783B
:1008A000413145352841747265757329205645528A
:1008B0003A203078303030380A00444553433A20EB
:1008C000712E6D2E6B2E206B6579626F61726420C4
:1008D0006669726D7761726520666F72204174720D
:1008E0006575730A000A092D2056657273696F6E6B
:1008F000202D0A000A092D20436F6E736F6C65204E
:100900002D0A4553432F713A09717569740A6D3A7E
:10091000096D6F7573656B65790A000A092D204DA5
:1009200061676963202D0A443A094465627567204E
:100930004D65737361676520546F67676C650A580E
:100940003A094D6174726978204465627567204D7B
:100950006F646520546F67676C65202D2053686F46
:1009600077206B65797072657373657320696E208B
:100970006D617472697820677269640A4B3A094B39
:100980006579626F61726420446562756720546F97
:1009900067676C65202D2053686F77206B657970D1
:1009A00072657373207265706F72740A4D3A0944F0
:1009B00065627567204D6F75736520546F67676C4E
:1009C000650A563A0956657273696F6E0A533A0999
:1009D0005374617475730A433A09416374697661AB
:1009E000746520436F6E736F6C65204D6F64650A8C
:1009F00046312D4631303A09537769746368207463
:100A00006F204C6179657220302D392028463130B5
:100A1000203D204C30290A302D393A09537769742A
:100A2000636820746F204C6179657220302D390A1B
:100A300047524156453A0953776974636820746F89
:100A4000204C6179657220302028616C7465726E6B
:100A5000617465290A423A094A756D7020746F20E5
:100A6000426F6F746C6F616465720A4553433A0953
:100A70004A756D7020746F20426F6F746C6F616483
:100A800065722028616C7465726E617465290A450F
:100A90003A095072696E7420454550524F4D2053AB
:100AA000657474696E67730A4253504143453A094D
:100AB000436C65617220454550524F4D0A4E3A09CC
:100AC0004E4B524F20546F67676C650A000A002531
:100AD00075002E6E6B726F3A20000A002575002E8D
:100AE000737761705F6261636B736C6173685F627F
:100AF00061636B73706163653A20000A00257500BD
:100B00002E737761705F67726176655F6573633AB4
:100B100020000A002575002E6E6F5F6775693A2008
:100B2000000A002575002E737761705F72616C7426
:100B30005F726775693A20000A002575002E737789
:100B400061705F6C616C745F6C6775693A20000A54
:100B5000002575002E636170736C6F636B5F746F3B
:100B60005F636F6E74726F6C3A20000A0025750027
:100B70002E737761705F636F6E74726F6C5F636109
:100B800070736C6F636B3A20000A00253032580096
:100B90006B65796D61705F636F6E6669672E7261F8
:100BA000773A20000A002575002E6D6F7573653A3F
:100BB00020000A002575002E6B6579626F617264F2
:100BC0003A20000A002575002E6D61747269783A2A
:100BD00020000A002575002E656E61626C653A2062
:100BE000000A00253032580064656275675F636FE4
:100BF0006E6669672E7261773A20000A00257500DB
:100C000064656661756C745F6C617965723A200029
:100C10003F004E4B524F3A206F66660A004E4B52D1
:100C20004F3A206F6E0A000A6D6F7573653A206F38
:100C300066660A000A6D6F7573653A206F6E0A006A
:100C40000A6B6579626F6172643A206F66660A00AA
:100C50000A6B6579626F6172643A206F6E0A000AEE
:100C60006D61747269783A206F66660A000A6D6178
:100C7000747269783A206F6E0A000A64656275675B
:100C80003A206F66660A000A64656275673A206FEB
:100C90006E0A000A0A4A756D70696E6720746F20CB
:100CA000626F6F746C6F616465722E2E2E2000432C
:100CB0003E2000436C656172696E67204545505265
:100CC0004F4D0A006565636F6E6669673A0A005B9F
:100CD000735D004B6579626F617264207374617239
:100CE000742E0A005B575D005B535D005B525D0034
:100CF0005B445D005B435D000403300000000E03B5
:100D00004100740072006500750073000000180354
:100D100054006500630068006E006F006D006100A4
:100D20006E006300790000000403090409025B00FF
:100D3000030100A0FA0904000001030101000921D8
:100D4000110100012240000705810308000A09047F
:100D50000100010300000009211101000122C0006F
:100D60000705820320000A090402000203000000B4
:100D7000092111010001222200070583032000013F
:100D800007050303200001120110010000000809FB
:100D900012E5A10800010203010631FF0974A10157
:100DA0000975150026FF0095207508810209761542
:100DB0000026FF00952075089102C005010902A1D7
:100DC0000185020901A10005091901290515002560
:100DD00001950575018102950175038101050109E0
:100DE0003009311581257F9502750881060938156E
:100DF00081257F950175088106050C0A3802158149
:100E0000257F950175088106C0C005010980A101F3
:100E100085031601002603001A81002A830075103D
:100E200095018100C0050C0901A10185041601008E
:100E3000269C021A01002A9C02751095018100C0AF
:100E400005010906A1018505050719E029E7150037
:100E500025019508750181020508190129059505E7
:100E6000750191029501750391010507190029EF9C
:100E70001500250195F075018102C005010906A143
:100E800001050719E029E71500250195087501817D
:100E90000295017508810105081901290595057557
:100EA0000191029501750391010507190029FF15AC
:100EB0000026FF00950675088100C00011241FBEA2
:100EC000CFEFDAE0DEBFCDBF04B603FE27C08091CE
:100ED000360290913702A0913802B09139028730E2
:100EE000904BA740B04BD1F41092360210923702CB
:100EF000109238021092390214BE84B7877F84BFE3
:100F00000FB6F894A8958091600088618093600086
:100F1000109260000FBEE0E0F8E3099511E0A0E058
:100F2000B1E0EAE1FEE502C005900D92AC33B107F5
:100F3000D9F722E0ACE3B1E001C01D92A633B207BD
:100F4000E1F70E941F290C940B2F0C940000FF93D3
:100F5000EF93E0913C01F0913D01309709F0099544
:100F6000EF91FF910895FC018591803011F0EFDF42
:100F7000FBCF0895FF27E0E230E247FF0CC0419528
:100F800097FF09C0EDE26095709580959095611D81
:100F9000711D811D911D27FF02C0219530E350E294
:100FA000AA27660F771F881F991FAA1FA41710F082
:100FB000A41B63955A95A9F7AA3008F0A95FA05D14
:100FC000AF93F395611571058105910541F7ED32F8
:100FD00011F4EF93F395F21718F43F93F395FBCFC9
:100FE0008F91B5DFFA95E1F70895E991F99185912F
:100FF000803021F0853219F0AADFF9CF089520E082
:10100000E89455915532C1F3503311F468945591D9
:101010005A3348F4505390F3220F022E220F220F1E
:10102000200D250FF4CF0EF4219589919991533617
:1010300019F3533729F1533559F1BC018827992702
:10104000E8945C3621F489919991689455915436CD
:1010500039F446EF7EF077FF0DC08FEF9FEF0AC0A7
:1010600055374AE039F0583540E121F0523642E038
:1010700009F00895FF93EF937DDFEF91FF91B7CFD4
:10108000FF93EF93FC0181918030B9F360DFFBCFD8
:10109000FF93EF9368DFF1CFDF93CF93CDB7DEB748
:1010A0002596A3DFCF91DF9108950F931F93CF93E0
:1010B000DF939C013A9521153F4148F5EB018C01E6
:1010C00090FF03C080EEFB01099511FF03C081EE84
:1010D000FE01099512FF03C082EEFE01099513FF80
:1010E00003C083EEFE0109950115104180F084EEE6
:1010F000FE01099585EEFE01099586EEFE01099532
:1011000087EEFE01DF91CF911F910F910994DF913E
:10111000CF911F910F910895877091E001C0990FB1
:101120008A95EAF7892F0E94EA1B0C94231C87708A
:1011300091E001C0990F8A95EAF7892F0E94EA1B76
:101140000C94231C877091E001C0990F8A95EAF7EF
:10115000892F0E94F01B0C94231C877091E001C022
:10116000990F8A95EAF7892F0E94F01B0C94231C93
:10117000CF93DF93EC01805E9109089710F02097E0
:1011800019F467E978E002C06CE878E0CE010E94CB
:1011900055088C2FDF91CF910C94B311CF93DF932F
:1011A000EC010E94EC12CE01805E9109089710F0CC
:1011B000209719F46DEA78E002C062EA78E0CE0187
:1011C000DF91CF910C945508CF93DF93EC010E94EF
:1011D000B808CE01DF91CF910C94CE0881E008953C
:1011E00081E008950C94F0081F93CF93DF9300D013
:1011F00000D01F92CDB7DEB749835A832091640196
:1012000089819A81211112C0662349F00E94541BE2
:10121000182F682F89819A810E94F91A03C00E94B1
:10122000281B182F69817A81812F04C00E94541BCA
:1012300069817A810F900F900F900F900F90DF913E
:10124000CF911F910C94560AFC014081518162811B
:10125000738184810C94F4080E94BC1C811102C02B
:101260000E94361D0E94630E0C94C80C0C94CB0C8B
:10127000282F2F7041F0822F90E02A3010F44D96E5
:1012800008950697089587E290E0089508950C94D4
:1012900046090C94470908950E941F160E944B09A5
:1012A0002FEF84E39CE0215080409040E1F700C0A4
:1012B000000087E797E790930108809300080C945B
:1012C000D61E0F931F93CF93DF938C010E942409A6
:1012D000EC01B8010E94F208882309F4DDC0B801CE
:1012E000CE010E94000F882309F4D6C0B801CE01B8
:1012F0000E949F0F882309F4CFC0C531FCE5DF07AA
:1013000008F07CC0C2308CE5D80708F452C0F80160
:101310008281882309F454C00E94BC1C811102C040
:101320000E94361D0E94CF1C90E09093280280936B
:101330002702FE01E350FC45E231F10530F4EA5AA0
:10134000FF4F809127020C94AF2E8091270281607D
:1013500027C0826025C0846023C0806121C0806274
:101360001FC080641DC080681BC08460886018C076
:101370008E7F16C08D7F14C08B7F12C08F7E10C0F1
:101380008F7D0EC08F7B0CC08F770AC08B7F877FCD
:1013900007C087FB222720F991E0922790FB87F96D
:1013A00080932702809127020E94D31C0E941F165F
:1013B00073C0C115ECE5DE0751F0C130DC4579F0B2
:1013C000C801DF91CF911F910F910C94EE08F801A5
:1013D0008281882309F460C00E944C095DC0F80135
:1013E0008281882309F458C08091E801816080934C
:1013F000E80188E293E00E94B3074EC0CC3D8CE543
:10140000D80739F4F8018281882309F445C080E0C7
:101410000DC0CD3DECE5DE0760F0CD3D8CE5D80795
:1014200091F5F80182818823B9F182E00E94C729F1
:1014300033C0C631DC4521F60E94D41B282FF801A9
:1014400082814091000150910101882379F02A7A2C
:1014500091E009F490E090933E01911102C069E29D
:1014600001C065E3CA010E94BF1D0AC080913E0110
:10147000811102C069E201C065E3CA010E94CA1D70
:101480000E94231C09C0CE3DDC4509F099CFF8012C
:10149000828181110E94361D80E0DF91CF911F91E2
:1014A0000F91089580E090E0089508959BE0799F62
:1014B000F00111249CE2899FE00DF11D1124E60F3B
:1014C000F11DEE0FFF1FE853FE4F85919491089593
:1014D000880F991FFC01E75CFC4F8591949108955A
:1014E000CF93DF930E94560A0E94270CEC018115CE
:1014F00020E59207F0F5811530E4930708F024C148
:10150000883E910500F5803E910508F09CC1883A1F
:10151000910570F4853A910508F09FC081309105DE
:1015200009F491C108F442C1049708F08CC13EC18E
:101530008F3B910508F49CC0803C910508F436C1AE
:10154000805C9109F4C0811540E2940758F4C115FC
:1015500081E0D80708F077C1C03FD10508F426C163
:10156000D06571C1811520E3920708F0E4C09F7037
:10157000DEC0811535E5930708F044C0811544E5C8
:10158000940708F0F8C0C11582E5D80708F5C11521
:1015900021E5D20708F0DBC08C2F837021E030E01A
:1015A00002C0220F331F8A95E2F73C68CE0174E037
:1015B000969587957A95E1F78370382BCF70C6950D
:1015C000C69580E2C89FE0011124C22BD32B3BC1FA
:1015D0002C2F26952695CE0183709927C115D345CA
:1015E00008F0BAC040E2249F90011124C1E0D0E08D
:1015F00002C0CC0FDD1F8A95E2F72C2B3D2BE901B1
:10160000DC6821C1811549E59407A0F4C11588E57E
:10161000D80708F0B5C0C11526E5D20708F0C6C046
:101620008C2F0E94A40C8F71C82FD0E0DC2FCC2708
:10163000D06209C181153AE5930708F4A6C0905617
:101640008115904208F0B2C08D2F8F710E94A40CBA
:10165000DD27D0628F71D82BF6C0853A910509F449
:10166000A8C0863A910509F0A7C0C2E8D0E4EBC053
:10167000883A910509F4A3C0893A910509F4A2C0FA
:101680008A3A910509F4A1C08B3A910509F4A0C0EA
:101690008C3A910509F49FC08B3B910509F49EC0DB
:1016A0008C3B910509F49DC08D3A910509F49CC0CD
:1016B000803B910509F49BC08E3A910509F49AC0CC
:1016C0008F3A910509F499C0813B910509F498C0BE
:1016D000823B910509F497C0833B910509F496C0BC
:1016E000843B910509F495C0853B910509F494C0AC
:1016F000863B910509F493C0873B910509F492C09C
:10170000883B910509F491C0893B910509F490C08B
:101710008D3B910509F48FC08E3B910509F48EC075
:101720008A3B910509F48DC0C0E0D4E48CC00E94CE
:10173000680AEC0188C09927D3FF03C0EC01D86C7C
:1017400082C0EC01D06C7FC0DF70D06A7CC0DC2F1F
:10175000CC27C16FD06A77C040E2249F900111244A
:10176000C1E0D0E002C0CC0FDD1F8A95E2F7C22BAA
:10177000D32BDA6868C0D82FCC27C46FD06A63C077
:10178000DC2FCC27C06FD06A5EC08F700E94A40C83
:1017900094E0D695C7959A95E1F7CF70D0E0DC2F0D
:1017A000CC27D06A8F70806EC82B4DC0C0E0D0E0CF
:1017B0004AC0C1E8D0E447C0C3E8D0E444C0C2EEA8
:1017C000D4E441C0C9EED4E43EC0CAEED4E43BC088
:1017D000C5EBD4E438C0C6EBD4E435C0C3EBD4E4E5
:1017E00032C0C4EBD4E42FC0C7EBD4E42CC0CCECA3
:1017F000D4E429C0CDECD4E426C0C3E8D5E423C0AA
:10180000CAE8D5E420C0C2E9D5E41DC0C4E9D5E4E6
:101810001AC0C1E2D6E417C0C3E2D6E414C0C4E2E1
:10182000D6E411C0C5E2D6E40EC0C6E2D6E40BC0D1
:10183000C7E2D6E408C0CFE6D4E405C0C0E7D4E4EC
:1018400002C0CAE2D6E4CE01DF91CF91089582387A
:10185000910549F1B0F48133910509F458C048F479
:101860008932910509F44EC08A32910509F454C0B9
:1018700008958533910509F440C08933910599F0A5
:101880000895833E910529F138F4803E910591F049
:10189000823E9105A1F00895863E9105F9F0873EBC
:1018A000910531F108952091270220FD3AC021FDD4
:1018B00038C008958091270280FD35C032C08091E4
:1018C000270282FF32C08091270284FD30C083EE60
:1018D00039C08091270282FD28C0F5CF8091270270
:1018E00083FF27C08091270284FD21C087EE2AC094
:1018F0008091270283FD1DC0F5CF8091270285FDD1
:101900001AC01BC08091270285FD17C014C08091AA
:10191000270286FD14C015C08091270286FD11C0E4
:101920000EC080EE0FC089E30DC082EE0BC080E0D8
:1019300009C086EE07C089E205C085E303C08AE2DC
:1019400001C081E390E008959091270292FF0DC0BD
:10195000282F2871283019F4877F846006C0282F2B
:101960002471243011F48B7F886093FF0DC0282FE1
:101970002871283119F4877E846106C0282F2471CC
:10198000243111F48B7E886194FD877E089508953B
:101990000C94C70C08950C94CA0CE82FF0E0EE0FDD
:1019A000FF1FE15CFE4F808191810895CF92DF920D
:1019B000EF92FF920F931F93CF93DF9389E493E00D
:1019C0000E94B3078FE3E82E81E0F82EC0E0D0E05C
:1019D00094E4C92E93E0D92E0BE313E0DF93CF9369
:1019E000DF92CF920E944C0881E493E00E94B307FB
:1019F000F701819191917F010E94A21C9F938F9387
:101A00001F930F930E944C0889E393E00E94B30751
:101A100021968DB79EB708960FB6F8949EBF0FBE5D
:101A20008DBFC430D105D1F6DF91CF911F910F91B9
:101A3000FF90EF90DF90CF900895EEE1F1E041E06C
:101A400050E024E02E0F9191A92FA295AF70B0E045
:101A500091963C9191979F70BA0102C0660F771FD3
:101A60009A95E2F7CB018095832391968C932E1360
:101A7000EACFA3E1B1E041E050E02BE02A0F8D91E5
:101A8000E82FE295EF70F0E031A18F70BA0102C04B
:101A9000660F771F8A95E2F7CB01962F90959323D7
:101AA00091A392A1892B82A32A13E9CF1092480116
:101AB000109247011092400110923F0110924A018A
:101AC00010924901109242011092410110924C0172
:101AD00010924B01109244011092430110924E015A
:101AE00010924D01109246011092450184E00E942F
:101AF000130E0C942C094F925F927F928F929F92BB
:101B0000AF92BF92CF92DF92EF92FF920F931F930B
:101B1000CF93DF932EE1422E21E0522EA7E4B1E0D5
:101B200020E001E010E05D018D909C9011971196EE
:101B30001C921E92E20189912E01E82FE295EF702E
:101B4000F0E031A18F70A80102C0440F551F8A95A3
:101B5000E2F7CA01342B31A342A1382F3095432339
:101B600042A350EA5A95F1F793E1C92E91E0D92E9C
:101B700040E050E0E60179906E01672D62956F704C
:101B800070E0EB01E8A06D917C911197F12CD72DBD
:101B9000DF7002C0F594E794DA95E2F7E0FC08C044
:101BA0007801042E02C0EE0CFF1C0A94E2F702C07A
:101BB000E12CF12C6E297F2911967C936E934F5F57
:101BC0005F4F4B305105B1F691A1392331A392A15A
:101BD000892B82A3129681E0F50140815181841600
:101BE000950609F480E0282BF1E0AF34BF0709F037
:101BF0009ACF44E06FE371E087E491E00E94140E15
:101C00000E94360981E0DF91CF911F910F91FF90E3
:101C1000EF90DF90CF90BF90AF909F908F907F908C
:101C20005F904F9008950895FF920F931F93CF9365
:101C3000DF93F82E092F162FD72FC42F222349F018
:101C400081E0809351010E946E1E90935001809319
:101C50004F01809151018823D9F080914F019091DB
:101C600050010E94861E069798F0EF2DF02FA12FAD
:101C7000BD2F80E090E04C2F50E08417950734F49E
:101C8000219131912D933D930196F7CF10925101FF
:101C9000DF91CF911F910F91FF900895CF93DF9324
:101CA00097FF0DC0FB012281222349F0EC010E9425
:101CB000A20ECE019F770E94E30E0E94CC0E81E01F
:101CC000DF91CF9108958CE090E00E94C92E90E0C2
:101CD000A0E0B0E080931C0290931D02A0931E022E
:101CE000B0931F028091E80180FF0EC080911C021A
:101CF0001F928F938FE793E09F938F930E944C08DE
:101D00000F900F900F900F90089560911C028CE03F
:101D100090E00C94D72E80931C020E94850E809137
:101D2000E80180FF0EC080911C021F928F9380E615
:101D300093E09F938F930E944C080F900F900F9009
:101D40000F9008950E94D41B809320020E94E71BED
:101D500080911C02813071F048F0823081F0843033
:101D6000A1F486EE0E94541388E10DC082EE0E9419
:101D7000B3110BC088E193E00E94E40806C082EE34
:101D80000E94B31187E50E9454138FE39CE90197E9
:101D9000F1F700C00000089580911C02813039F0F5
:101DA00040F0823031F0843051F488E206C08CE299
:101DB00004C082EE0E94EC1202C00E945413809173
:101DC00020020C94E41B0F931F93CF93DF938C019D
:101DD000CCE0D0E0C8010C2E02C0969587950A94FD
:101DE000E2F78F700E9438090E9454132497CC3F69
:101DF0008FEFD80779F7DF91CF911F910F91089559
:101E00000F931F93CF93DF93EC018B01FB01828132
:101E1000882301F1C33EFCE5DF07B9F050F4C13E71
:101E2000ECE5DE0781F0C23EFCE5DF0799F481E0D6
:101E30000FC0C43E8CE5D80751F0C53EECE5DE0787
:101E400049F484E005C080E003C082E001C083E083
:101E50000E948B0EB801CE01DF91CF911F910F919F
:101E60000C944E0E0F931F93CF93DF93C62FD42F56
:101E7000022FFC0182818823C9F0609354010E94E3
:101E80006E1E909353018093520180E28C0F883034
:101E900008F050C0C77081E001C0880FCA95EAF70A
:101EA000DF91CF911F910F910C945C13109154010D
:101EB000161330C080915201909153010E94861EEA
:101EC000883C910538F5C0E2CD0F1D17B9F080E2CE
:101ED000810F883040F4177081E001C0880F1A9597
:101EE000EAF70E946313C83048F481E09D2F977091
:101EF00001C0880F9A95EAF70E945C13802F0E9418
:101F00005413C830B8F4D77081E001C0880FDA9557
:101F1000EAF70AC080E28C0F883060F4C77081E075
:101F200001C0880FCA95EAF7DF91CF911F910F91F9
:101F30000C946313DF91CF911F910F9108959C0131
:101F4000CB01203F4CE5340719F178F4283D4CE5EE
:101F50003407B9F0293D4CE5340731F1273D3C45C4
:101F600031F526E241EE61EE0FC0223F4CE5340729
:101F7000B9F090F0233F3C45D1F427E246EE66EEFF
:101F800003C027E245EE65EE0E94320F80E008951F
:101F900026E240EE60EEF8CF27E244EE64EEF4CFA6
:101FA00026E242EE62EEF0CF28E241E0ECCF109262
:101FB000540181E0089590935A0180935901089546
:101FC000E0915901F0915A01309721F00190F08190
:101FD000E02D099480E00895EF92FF921F93CF9334
:101FE000DF93FC01A0915901B0915A01109709F4B7
:101FF00042C080911201882341F08091270287FF1F
:1020000004C08081818385E08083EF011296ED9189
:10201000FC911397CE0109958091E80182FF2BC0B6
:1020200080FF04C087EA93E00E94B30718E081EACA
:10203000E82E83E0F82E8091E80180FF0BC08881B4
:102040001F928F93FF92EF920E944C080F900F9077
:102050000F900F90115021961111EDCF8091E80152
:1020600080FF09C08FE993E0DF91CF911F91FF902E
:10207000EF900C94B307DF91CF911F91FF90EF90F9
:102080000895E0915901F0915A01309739F022E01A
:10209000DC012C930480F581E02D099408952091B2
:1020A0005701309158018217930771F090935801AE
:1020B00080935701E0915901F0915A01309721F036
:1020C0000680F781E02D0994089520915501309103
:1020D00056018217930771F0909356018093550132
:1020E000E0915901F0915A01309721F00084F18577
:1020F000E02D0994089585B7806885BF85B780680D
:1021000085BF0895089508950C94831008950C9444
:1021100086100E947B100E9482100C94841081E033
:1021200008950E94651E0E941D0D0E94E71E0C94DA
:102130008710CF93C82F8091E80182FF1EC080FFD7
:1021400004C080EC93E00E94B3078091E80180FF17
:102150000CC01F92CF938BEB93E09F938F930E94C1
:102160004C080F900F900F900F908091E80180FF26
:1021700004C089EB93E00E94B3078C2FCF910C949D
:1021800049094F925F927F928F929F92AF92BF9236
:10219000CF92DF92EF92FF920F931F93CF93DF9333
:1021A000CDB7DEB72A970FB6F894DEBF0FBECDBF0E
:1021B0000E947B0D0E948F10811111C08FEF8983C7
:1021C0008A831B820E946E1E8160782F9D838C8380
:1021D00049815A816B818D810E947F1157C09CE596
:1021E000C92E91E0D92E00E010E0AA24A394B12CCE
:1021F000702E802F0E94CD0C4C01F6014190519021
:102200006F01482659264114510431F40F5F1F4FC6
:102210000430110569F7D2CF8091E80181FD0E9459
:10222000D60C20E030E07501022E02C0EE0CFF1C3F
:102230000A94E2F7C70184219521892B09F12E83A5
:102240007F828E209F2091E0892809F490E0988772
:102250000E946E1E8160782F9A8789874E815F81E8
:1022600068858A850E947F11000F111FF801E45ACA
:10227000FE4F80819181E826F926F182E08206C036
:102280002F5F3F4F2B30310571F6C0CF0E94FC20ED
:1022900010915B010E94E00F1817D9F00E94E00F27
:1022A00080935B012A960FB6F894DEBF0FBECDBFB8
:1022B000DF91CF911F910F91FF90EF90DF90CF9022
:1022C000BF90AF909F908F907F905F904F900C94B5
:1022D00099102A960FB6F894DEBF0FBECDBFDF91DE
:1022E000CF911F910F91FF90EF90DF90CF90BF9013
:1022F000AF909F908F907F905F904F900895CF9375
:10230000DF93CDB7DEB72B970FB6F894DEBF0FBEC5
:10231000CDBF4F83588769877A878B87DE011196F7
:1023200086E0FD0111928A95E9F785E0FE01379676
:1023300001900D928A95E1F749815A816B817C81E8
:102340008D819E810E94C9182B960FB6F894DEBF2E
:102350000FBECDBFDF91CF910895FC0180819181A7
:102360000E94951B0895CF93DF931F92CDB7DEB7E0
:10237000882309F42DC1682F8238C1F40E94E00F30
:1023800081FD26C169E380910001909101010E94C5
:10239000BF1D0E94231C2FEF81EE94E0215080404E
:1023A0009040E1F700C0000069E319C0833811F5DF
:1023B0000E94E00F80FD0CC163E5809100019091C7
:1023C00001010E94BF1D0E94231C2FEF81EE94E0AB
:1023D000215080409040E1F700C0000063E580910B
:1023E0000001909101010E94CA1D0F90DF91CF91D1
:1023F0000C94231C8438C1F40E94E00F82FDE8C0D5
:1024000067E480910001909101010E94BF1D0E942C
:10241000231C2FEF81EE94E0215080409040E1F7A3
:1024200000C0000067E4DBCF8CEF860F813A70F4C8
:10243000862F69830E94562569818111C9C08091C8
:102440000001909101010E94BF1DCFCF80E2860F55
:10245000883048F4677081E001C0880F6A95EAF718
:102460000E94D71BC2CF8BE5860F833088F4653A74
:1024700029F0663A31F083E890E005C081E890E009
:1024800002C082E890E00F90DF91CF910C944F1042
:1024900088E5860F873108F091C0683A09F445C095
:1024A000693A09F445C06A3A09F445C06B3A09F43F
:1024B00045C06C3A09F445C06B3B09F445C06C3B20
:1024C00009F445C06D3A09F445C0603B09F445C0C4
:1024D0006E3A09F445C06F3A09F445C0613B09F40E
:1024E00045C0623B09F445C0633B09F445C0643B09
:1024F00009F445C0653B09F445C0663B09F445C095
:10250000673B09F445C0683B09F445C0693B09F4E1
:1025100045C06D3B09F445C06E3B09F445C06A3BBC
:1025200009F445C080E090E044C082EE90E041C0F4
:1025300089EE90E03EC08AEE90E03BC085EB90E0F3
:1025400038C086EB90E035C083EB90E032C084EB7E
:1025500090E02FC087EB90E02CC08CEC90E029C07D
:102560008DEC90E026C083E891E023C08AE891E0FA
:1025700020C082E991E01DC084E991E01AC081E2A7
:1025800092E017C083E292E014C084E292E011C0AE
:1025900085E292E00EC086E292E00BC087E292E014
:1025A00008C08FE690E005C080E790E002C08AE2B4
:1025B00092E00F90DF91CF910C946510603F40F056
:1025C000862F0E94821F0F90DF91CF910C946F2075
:1025D0000F90DF91CF910895882309F464C0823869
:1025E00079F40E94E00F81FF5EC069E380910001F1
:1025F000909101010E94BF1D0E94231C69E310C03D
:102600008338B1F40E94E00F80FF4DC063E58091F4
:102610000001909101010E94BF1D0E94231C63E5EF
:1026200080910001909101010E94CA1D0C94231C0D
:10263000843879F40E94E00F82FF35C067E480910E
:102640000001909101010E94BF1D0E94231C67E4BC
:10265000E7CF9CEF980F913A10F4682FE1CF90E20A
:10266000980F983050F4877091E001C0990F8A95C7
:10267000EAF7892F0E94DD1BD9CF9BE5980F933095
:1026800020F480E090E00C944F1098E5980F97317B
:1026900020F480E090E00C946510803F20F00E94D0
:1026A000EA1F0C946F200895CF93C82F0E94B31196
:1026B0008C2FCF910C94EC12882321F00E94D71B11
:1026C0000C94231C0895882321F00E94DD1B0C9498
:1026D000231C08954F925F926F927F92BF92CF9288
:1026E000DF92EF92FF920F931F93CF93DF937C01C2
:1026F000D62FC72FFC01058102950F701281111191
:102700000E94F71B0E94CD1B882379F0112369F0EA
:1027100080E28D0F883048F082E00E946E1C0E949B
:10272000CD1B91E0B82EB92601C0B12CCC2EC2949D
:102730008FE0C822D12CF601E859FF4F0C94AF2E40
:102740008C2F807FCF70882311F0C295C07F11231A
:1027500099F0CC2309F4CFC180E28D0F883010F0BE
:10276000D11104C08C2F0E94D71B03C08C2F0E9454
:10277000EA1B0E94231CBFC18D2F0E94EC12CC23A8
:1027800009F4DEC180E28D0F883010F0D11104C051
:102790008C2F0E94DD1B03C08C2F0E94F01B0E9417
:1027A000231CCEC18C2F807FCF70803211F0C29558
:1027B000C07FDD2319F0D130C9F022C0112371F0A0
:1027C000002341F0013031F40E940A1C8C2B0E943E
:1027D000101CB6C10E940A1C8C2B46C1002319F0A4
:1027E000013009F4ADC10E94191C18C0112321F059
:1027F000063008F0A5C10EC0053008F0A1C10EC01A
:10280000112351F0002331F0F701858180FF73C15E
:102810008F7085838C2F28C101117EC18C2F2AC116
:102820008C2F86958695837090E0009719F001971C
:1028300061F086C1112321F08D2F9C2F937002C06F
:1028400080E090E00E944F108BC1112321F08D2F6A
:102850009C2F937002C080E090E00E94651080C1C0
:102860001123F9F0D53F51F0D63F71F0D43FA9F4D0
:10287000809121029091220281600BC080912102FF
:1028800090912202826005C08091210290912202E3
:10289000846090932202809321028D2F0E94821FD8
:1028A0001EC0D53F51F0D63F71F0D43FA9F48091BE
:1028B0002102909122028E7F0BC080912102909183
:1028C00022028D7F05C080912102909122028B7F90
:1028D00090932202809321028D2F0E94EA1F0E9472
:1028E0006F203EC18C2F837009F050C0111134C18C
:1028F0008D2F829586958770880F880F9D2F9F70EA
:10290000492E512C612C712C082E04C0440C551CEE
:10291000661C771C0A94D2F7D4FF14C00FE010E0B5
:1029200020E030E0B901A80104C0440F551F661F24
:10293000771F8A95D2F7CB01BA0160957095809583
:10294000909503C060E070E0CB01C695C695C3705A
:10295000D0E0C230D10561F0C330D10581F06429E7
:10296000752986299729219771F00E940E1AF4C0C3
:1029700064297529862997290E94201AEDC00E9492
:102980000E1AC301B2010E94FC19E6C0112319F00E
:102990008C2F817001C08695882309F4DDC08D2FAE
:1029A000829586958770880F880F9D2F9F70492E7E
:1029B000512C612C712C082E04C0440C551C661C33
:1029C000771C0A94D2F7D4FF14C00FE010E020E087
:1029D00030E0B901A80104C0440F551F661F771FDE
:1029E0008A95D2F7CB01BA01609570958095909544
:1029F00003C060E070E0CB01C695C695C3704C2F54
:102A000050E04230510569F04330510589F06429A6
:102A10007529862997294130510571F00E94D41AF1
:102A20009BC064297529862997290E94E61A94C0BB
:102A30000E94D41AC301B2010E94C21A8DC08D2F08
:102A400090E0FC01E05EF109E531F10508F04FC0CE
:102A5000E858FF4F0C94AF2EDF708C2F8F7111232D
:102A600031F00E945B1A8D2F0E945C1369C00E9496
:102A70007C1A8D2F0E94631363C0112341F005302F
:102A800008F05EC08C2F8F710E94A11A59C00630C9
:102A900008F056C0F7CF112339F08C2F8F710E94A8
:102AA0005B1A4EC01123C9F38C2F8F710E947C1AC0
:102AB00047C0112329F08C2F8F710E94461A40C005
:102AC0000E94411A3DC0112349F0CF718C2F0E9402
:102AD0005B1A63E08C2F0E94591C32C081E00E9477
:102AE0006E1C023068F182E00E946E1C29C0112326
:102AF00031F0002391F28D2F0E94B31121C00023E9
:102B000099F2D93349F45FEF67EE73E051506040BA
:102B10007040E1F700C000008D2F0E94EC1210C041
:102B20004C2F4F706D2FC7010E94520A0E946D19E1
:102B300017C04C2F4F706D2FC7010E94550A10C04F
:102B400088E0C816D10441F05CF0EAE0CE1AD10862
:102B5000F2E0CF16D10420F40E94E00F0E94490950
:102B6000BB20F1F00E94C91B80FD1AC0F701128240
:102B70000E94C31B0E945B1AC7010E94DE150E94BF
:102B8000C31BDF91CF911F910F91FF90EF90DF90CA
:102B9000CF90BF907F906F905F904F900C947C1A75
:102BA000DF91CF911F910F91FF90EF90DF90CF9029
:102BB000BF907F906F905F904F9008950F931F93F9
:102BC000CF93DF93EC01888199812B813C81232B6A
:102BD000B9F09F3F11F48F3F99F0CE010E94610937
:102BE000882371F0688179818A810E94A01B8C0101
:102BF0000E94F81A0E94F919B801CE010E946A13C6
:102C0000DF91CF911F910F9108950E94F71B0E94B1
:102C1000071C0E94231C0E9497210E946F2080E0C5
:102C200090E00E944F1080E090E00C94651080913D
:102C30000001909101010E94D51D0C9405160E947F
:102C4000E71B0C941716E92FE295EF70F0E032972E
:102C5000EE30F105B0F4E357FF4F0C94AF2E803FF8
:102C600091F018F4803E68F40EC0843F51F40BC01C
:102C7000803E48F0813F29F406C093FB882780F905
:102C8000089580E0089581E008950E94951B0E94B8
:102C900023160895CF93DF9300D000D01F92CDB7B5
:102CA000DEB70F900F900F900F900F90DF91CF91A4
:102CB0000895CF93DF9300D000D000D0CDB7DEB71A
:102CC00026960FB6F894DEBF0FBECDBFDF91CF9131
:102CD00008951F93CF93DF93C091650116E0809113
:102CE0006601C81799F0D0E01C9FF0011D9FF00D00
:102CF0001124E959FE4F40815181628173818481A1
:102D000095810E9459162196C770E9CFDF91CF9126
:102D10001F910895409197015091980160919901F8
:102D200070919A0180919B0190919C010C9459168D
:102D300080919C0182958F7009F054C08091990117
:102D4000882309F44FC080916501A09166016091CC
:102D500097017091980140919A0150919B01B6E0C2
:102D60008A1709F43FC090E041155105C1F17F3F3A
:102D700011F46F3FA1F1B89FF001B99FF00D11243C
:102D8000E959FE4F218172132AC02081621327C0A6
:102D90002281211124C0238134812417350710F4A6
:102DA00021503109241B350B283C3105C0F42091FA
:102DB0009C012F70206120939C0126E0289FF00148
:102DC000299FF00D1124E459FE4F80818F7080619E
:102DD000808387E991E00E94DE150C9469160196C4
:102DE0008770BECF0895CF92DF92EF92FF920F933C
:102DF0001F93CF93DF93CDB7DEB762970FB6F894EA
:102E0000DEBF0FBECDBF8C0185E0F801DE011D964F
:102E100001900D928A95E1F7D8014C9111965C9141
:102E2000119712966C9112971396CD90DC9014978F
:102E3000309197017091980180919A0190919B0136
:102E4000009709F46BC17F3F19F43F3F09F466C155
:102E5000E0909901EE2009F4C0C020919C01C816B1
:102E6000D90628F0F601E81BF90BCF0104C08095C4
:102E700090958C0D9D1DFF24F394883C910578F06E
:102E8000F12C207F09F0C6C07C2DD98AC88A898997
:102E90000E944A1687E991E00E94DE15B1C0822F98
:102EA000807F09F046C0751314C0341312C061113D
:102EB00010C02F70206120939C010E948A1687E920
:102EC00091E00E94DE1580919C01D80115968C93AB
:102ED0002EC0CD2819F15F3F11F44F3FF9F0F62EC7
:102EE00061111CC0809165012091660136E0821756
:102EF00009F45AC090E0389FF001399FF00D112479
:102F0000E959FE4F7181571306C07081471303C002
:102F10007281711103C001968770E9CFF62E662386
:102F200009F427C180919C01816080939C01F12C60
:102F300020C1751308C0341306C0611104C080910C
:102F40009C01D801C3C04D875E878D859E856A8BA5
:102F50000E9445166A898823E1F16623D1F1209108
:102F60009C01822F82958F7090E0029774F080917F
:102F700097019091980198878F831986DB86CA867E
:102F80002C87CE0107960E94DE1586E0F801A7E99E
:102F9000B1E001900D928A95E1F70E9498160E9487
:102FA0008A16FF24F394E5C04D875E878D859E8544
:102FB0000E94951B292F22952F7030E02230310579
:102FC0000CF0CBC09F7009F0C5C0805E883008F45B
:102FD000D0C0C8010E94DE15E4CFC816D90608F497
:102FE00053C0F601E81BF90BCF01883C910508F4AA
:102FF00050C0F12C7C2DD98AC88A89890E944A1632
:10300000E7E9F1E086E0DF011D928A95E9F70E9489
:103010008A16AFC0751314C0341312C0611110C0EA
:1030200080919C01F8018583C8010E94DE1586E02D
:10303000E7E9F1E0DF011D928A95E9F7FE2C99C0DE
:103040004D875E878D859E856A8B0E9445166A89AD
:10305000882309F4BECF662309F4BBCF20919C01DD
:10306000822F82958F7090E002970CF48ECF809122
:103070009701909198019A8389831B82DD82CC828B
:103080002E83CE0101967FCF809590958C0D9D1D4E
:10309000ACCFF62E662309F49CCF75132EC03413E3
:1030A0002CC020919C0120FD1FC0822F82958F7023
:1030B000D9F0D80115962C9315978F3049F08F5F72
:1030C000982F9295907F822F8F70892B15968C93D5
:1030D000C8010E94DE1586E0F801A7E9B1E0019081
:1030E0000D928A95E1F793CF86E0F801A7E9B1E068
:1030F00001900D928A95E1F73CC04D875E878D85E2
:103100009E850E944516811140CF80919C0181606F
:1031100080939C01C8010E94DE152BC0662309F430
:1031200058CF4D875E878D859E850E944516F82E67
:10313000882309F44ECF86E0F801A7E9B1E00190B9
:103140000D928A95E1F787E991E00E94AD110E9406
:1031500098165DCF811139CF0CC0243031050CF0A9
:1031600038CF9F7009F431CFF8019581907F09F035
:103170002CCF8F2D62960FB6F894DEBF0FBECDBF59
:10318000DF91CF911F910F91FF90EF90DF90CF9043
:1031900008951F93CF93DF93CDB7DEB72C970FB66B
:1031A000F894DEBF0FBECDBF4F83588769877A87FB
:1031B0008B879C87CE0107960E94F316882369F0BF
:1031C0008F8198852A853B85232BF1F19F3F09F05C
:1031D00063C08F3F09F060C037C086E0FE013796BC
:1031E000DE01119601900D928A95E1F76F81788545
:1031F000EA85FB85309741F17F3F11F46F3F21F164
:103200002091660130E0C9010196877099274091AD
:10321000650150E08417950709F447C069837A83F4
:10322000FD83EC8396E0929FD001939FB00D112413
:10323000A959BE4FFE01319601900D929A95E1F782
:10324000809366010E94691616E080916501909155
:1032500066018917C1F1189FC001112489599E4F39
:103260000E94F316882379F1E09165011E9FF00119
:103270001124E959FE4F408151816281738184811B
:1032800095810E9459168091650190E001968770A2
:10329000992780936501D9CF4F81588569857A85B3
:1032A0008B859C850E945916CFCF0E941F161092C5
:1032B000660110926501E7E9F1E086E0DF011D9209
:1032C0008A95E9F7C1CF2C960FB6F894DEBF0FBEF2
:1032D000CDBFDF91CF911F910895EF92FF920F9391
:1032E0001F93CF93DF938C01892B09F46CC0F12CD1
:1032F000EE24E394E8012196F8018491843740F4A8
:10330000843008F051C0813081F0823019F15BC007
:10331000853709F444C0A8F19CE7980F903708F06E
:1033200052C08F770E94EC1241C00E5F1F4FFE010A
:10333000C49180E28C0F883048F4C7708E2D01C094
:10334000880FCA95EAF70E94FA1B14C08C2F0E94BE
:10335000B3112DC00E5F1F4FFE01C49180E28C0F90
:10336000883058F4C7708E2D01C0880FCA95EAF7CF
:103370000E94001C0E94231C1AC08C2F0E94EC1279
:1033800016C00E5F1F4FFE01C491CC2381F08FE960
:103390009FE00197F1F700C00000C150F6CF0E5F2B
:1033A0001F4FFE01F49003C00E94B3118E018F2DB8
:1033B000882309F49FCFEFE9FFE03197F1F700C0D0
:1033C00000008150F5CFDF91CF911F910F91FF90B9
:1033D000EF90089508950C94EA190E94EB196093F8
:1033E000BF017093C0018093C1019093C2010C94FE
:1033F000051608950C94ED190F931F930091BF01CA
:103400001091C0012091C1013091C201602B712B3C
:10341000822B932B1F910F910C94ED190F931F93F7
:103420000091BF011091C0012091C1013091C201F2
:1034300060237123822393231F910F910C94ED1924
:103440000F931F930091BF011091C0012091C10102
:103450003091C20160277127822793271F910F9116
:103460000C94ED1908950C94321A0E94331A60934B
:10347000BB017093BC018093BD019093BE010C947D
:10348000051660E070E0CB010C94351A0F931F9382
:1034900041E050E060E070E08A019B0104C0000F51
:1034A000111F221F331F8A95D2F7C901B8011F913E
:1034B0000F910C94351A0F931F9341E050E060E098
:1034C00070E004C0440F551F661F771F8A95D2F71E
:1034D0008091BB019091BC01A091BD01B091BE0152
:1034E0008A019B01082B192B2A2B3B2BC901B80100
:1034F0001F910F910C94351A0F931F9341E050E0E8
:1035000060E070E004C0440F551F661F771F8A9566
:10351000D2F740955095609570958091BB01909140
:10352000BC01A091BD01B091BE018A019B0108239D
:1035300019232A233B23C901B8011F910F910C9431
:10354000351A0F931F9341E050E060E070E004C033
:10355000440F551F661F771F8A95D2F78091BB01D4
:103560009091BC01A091BD01B091BE018A019B0167
:10357000082719272A273B27C901B8011F910F9156
:103580000C94351A0F931F930091BB011091BC014D
:103590002091BD013091BE01602B712B822B932BAA
:1035A0001F910F910C94351A0F931F930091BB013B
:1035B0001091BC012091BD013091BE0160237123A7
:1035C000822393231F910F910C94351A0F931F930D
:1035D0000091BB011091BC012091BD013091BE0151
:1035E00060277127822793271F910F910C94351A1A
:1035F00008952BE0929F800D1124A82FA695A695E3
:10360000A695877051E001C0550F8A95EAF785E0CD
:10361000A89FD001112420E030E070E0F901EA0F0A
:10362000FB1FE356FE4F4081CB01022E02C0969550
:1036300087950A94E2F781709927819584278523DD
:10364000842780832F5F3F4F2530310539F7089558
:103650002BE0929F800D1124682F669566956695E4
:10366000982F977085E0689FB001112440E050E0EA
:1036700080E0FA01E60FF71FE356FE4F208130E0AD
:10368000092E02C0369527950A94E2F72170332758
:10369000042E01C0220F0A94EAF7822B4F5F5F4F7E
:1036A0004530510531F70895BF92CF92DF92EF92E6
:1036B000FF920F931F93CF93DF938C01C090BF01B4
:1036C000D090C001E090C101F090C2018091BB0197
:1036D0009091BC01A091BD01B091BE01C82AD92A28
:1036E000EA2AFB2ACFE1D0E0D701C6010C2E04C0A4
:1036F000B695A795979587950A94D2F780FF07C04E
:10370000BC2EB8018C2F0E94700A019719F42197E2
:1037100058F7B12C8B2DDF91CF911F910F91FF9016
:10372000EF90DF90CF90BF900895CF93DF93EC019F
:103730000E94541BBE010E94700ADF91CF91089530
:103740001F93CF93DF93EB0190916401992321F0B4
:10375000CB010E94951B13C0882349F0CB010E9426
:10376000541B182F682FCE010E94F91A04C0CB01F8
:103770000E94281B182FBE01812F0E94700ADF9122
:10378000CF911F9108958091C30185958595859569
:1037900008958091C301877008959091C301977037
:1037A00081E009F480E008958091E7010895909107
:1037B000E701892B8093E701089580959091E701B7
:1037C00089238093E70108958093E701089510927B
:1037D000E70108959091E601892B8093E601089511
:1037E00080959091E60189238093E60108951092D7
:1037F000E60108959091E501892B8093E5010895F4
:1038000080959091E50189238093E50108951092B8
:10381000E50108958091C401089508950C940D1C4C
:103820009091C401981721F08093C4010C940E1C50
:1038300008958091C401882329F01092C40180E08A
:103840000C940E1C0895E0910001F091010180910B
:10385000E7018083E0910001F09101019081809166
:10386000E601892B8083E0910001F09101019081B4
:103870008091E501892B80838091C401882381F0A8
:10388000E0910001F09101019081892B808380916A
:103890000001909101010E94381D81110E94191CA4
:1038A00080910001909101010C94EC0F08950C940B
:1038B000561C98E0899F90011124262B2093C30168
:1038C0000E945B1A8091C3018595859585950C941E
:1038D000571C1092C30180E00C94571C2091C30127
:1038E000809582238093C301982F977079F430E0FC
:1038F000482F082E000C550B2417350739F08595F5
:10390000859585950E947C1A0C94691C0895909366
:103910003D0180933C0108958295982F9C7C392F1E
:1039200036953695282F237344E0249FC001112437
:10393000932F982B292F2A7A2695892F8575880F02
:10394000822B08951F93CF93DF931F92CDB7DEB7DD
:1039500099830E948C1C182F9981892F0E948C1C9E
:10396000212F30E0322F2227A901482BCA010F90C6
:10397000DF91CF911F91089580E090E00E94D12EB9
:1039800021E08D3E9E4F09F020E0822F089582E0D5
:1039900090E00C94C92E83E090E00C94C92E84E052
:1039A00090E00C94C92E682F84E090E00C94D72E00
:1039B000AB01BC018FE090E00C94E92EAB01BC019F
:1039C00083E190E00C94E92E60E070E0CB010C9470
:1039D000DE1C60E070E0CB010E94D81C0C94E41C5B
:1039E0006DEE7EEF80E090E00E94F52E60E082E0D8
:1039F00090E00E94D72E60E083E090E00E94D72EF6
:103A00001092BF011092C0011092C1011092C20128
:103A100060E084E090E00E94D72E60E085E090E0D6
:103A20000E94D72E60E086E090E00E94D72E6FEFD4
:103A300087E090E00E94D72E40E050E0BA0188E095
:103A400090E00E94E92E60E08DE090E00E94D72E89
:103A500040E050E0BA0188E190E00E94E92E60E089
:103A600087E190E00E94D72E0C94E91C0C94F01C86
:103A7000FC01329680911201882331F08091270257
:103A800087FF02C09EE101C096E080E0915028F0DF
:103A900021912223D9F38F5FF9CF08959C01FC0176
:103AA00032969FEF80E04191461789F09F3F19F4CD
:103AB000411101C0982F8F5F8630A9F79F3F39F0E1
:103AC000F901E90FF11D97FDFA95628308950895B4
:103AD000FC01329608962081261301C0108231968F
:103AE000E817F907C1F70895262F269526952695FC
:103AF0002E3170F4FC01E20FF11D677021E030E01F
:103B000001C0220F6A95EAF78281282B228308954B
:103B10008091E80180FF0CC01F926F9381EF93E0CA
:103B20009F938F930E944C080F900F900F900F90CF
:103B30000895262F2695269526952E3178F4FC019A
:103B4000E20FF11D677021E030E001C0220F6A959D
:103B5000EAF7209582812823228308958091E80145
:103B600080FF0CC01F926F9383ED93E09F938F9320
:103B70000E944C080F900F900F900F900895209185
:103B80001201222329F02091270227FD0C94741D95
:103B90000C944E1D20911201222329F0209127021E
:103BA00027FD0C94991D0C94681D20911201FC01B5
:103BB0003296222331F08091270287FF02C08EE1E6
:103BC00001C086E0DF011D928A95E9F70895089506
:103BD0000C94E71D0E94E81D80912D02843049F16C
:103BE0001092E90120E488E190E00FB6F894A895DE
:103BF000809360000FBE2093600080E00E9449091E
:103C00000E94E81D83B7817F846083BF83B7816092
:103C100083BF7894889583B78E7F83BF0FB6F8945F
:103C2000A895809160008861809360001092600088
:103C30000FBE089508950895CF930E941A1E0E9402
:103C40007B0D0E941B1EC0E08C2F0E94CD0C892B87
:103C500029F4CF5FC430C1F780E001C081E0CF918B
:103C6000089508950C94311E0E941F160E94E00FC3
:103C70000E9449090C94321E1F920F920FB60F92A8
:103C800011248F939F93AF93BF938091E90181118A
:103C900013C08091230290912402A0912502B0913B
:103CA00026024196A11DB11D809323029093240208
:103CB000A0932502B0932602BF91AF919F918F915F
:103CC0000F900FBE0F901F90189582E084BD93E077
:103CD00095BD9AEF97BD80936E0008952FB7F89425
:103CE0008091230290912402A0912502B091260296
:103CF0002FBF08952FB7F89460912302709124028A
:103D000080912502909126022FBF0895CF92DF92D5
:103D1000EF92FF920F931F932FB7F89440912302D5
:103D20005091240260912502709126022FBF6A01F2
:103D30007B01EE24FF248C0120E030E0C016D10688
:103D4000E206F30610F4415051099A01281B390B81
:103D5000C9011F910F91FF90EF90DF90CF900895D0
:103D600078941F920F920FB60F9211248F939F9306
:103D7000AF93BF938091230290912402A0912502DA
:103D8000B09126020196A11DB11D8093230290934C
:103D90002402A0932502B0932602BF91AF919F9178
:103DA0008F910F900FBE0F901F90189587E797E7A0
:103DB00090930108809300089AE088E10FB6F89488
:103DC000A895809360000FBE90936000FFCF0E9483
:103DD000BC1C811102C00E94361D0E94C71C80932A
:103DE000E8010E94CF1C90E0909328028093270264
:103DF0000E94CB1C682F70E080E090E00C94FA19D0
:103E00008091ED0180FF0BC06091050185E0689F06
:103E1000B001112475956795759567952BC081FF45
:103E200009C06091050185E0689FB0011124759576
:103E3000679520C082FF07C06091050185E0689FFB
:103E4000B001112417C09091EC019923D1F0609139
:103E50000401961788F72091050185E0289F9001BD
:103E60001124929FA001939F500D112470E0CA016C
:103E70000E949B2E6038710540F46115710539F080
:103E800002C065E070E0862F08958FE7089581E015
:103E900008958091ED0180FF08C06091030170E0FA
:103EA000759567957595679521C081FF06C06091EE
:103EB000030170E07595679519C082FF04C0609199
:103EC000030170E010C09091EC019923C1F0609162
:103ED00002019617A0F780910301899FC001112468
:103EE00070E00E949B2E6038710528F46115710501
:103EF00021F0862F08958FE7089581E0089561E00D
:103F000070E0F4CF803F21F40E94001F819504C02F
:103F1000813F29F40E94001F8093F1010895823FA0
:103F200021F40E94001F819504C0833F29F40E9460
:103F3000001F8093F0010895893F19F40E94491FE2
:103F400005C08A3F31F40E94491F81958093F20198
:103F500008958B3F21F40E94491F819504C08C3F36
:103F600029F40E94491F8093F3010895843F21F4AE
:103F70008091EF01816017C0853F21F48091EF01AE
:103F8000826011C0863F21F48091EF0184600BC0F4
:103F9000873F21F48091EF01886005C0883F31F4AC
:103FA0008091EF0180618093EF0108958D3F21F4AE
:103FB0008091ED0181600BC08E3F21F48091ED0175
:103FC000826005C08F3F29F48091ED018460809369
:103FD000ED010895803F39F48091F10187FF6CC0B5
:103FE0001092F10169C0813F29F48091F101181606
:103FF000BCF362C09091F001823F29F497FF5CC04E
:104000001092F00159C0833F19F41916CCF354C033
:10401000893F41F48091F20118160CF04DC01092C6
:10402000F2014AC08A3F29F48091F20187FF44C01F
:10403000F6CF8B3F39F48091F30187FF3DC010929A
:10404000F3013AC08C3F29F48091F3011816BCF3B8
:1040500033C0843F21F48091EF018E7F17C0853FEC
:1040600021F48091EF018D7F11C0863F21F4809172
:10407000EF018B7F0BC0873F21F48091EF01877F99
:1040800005C0883F31F48091EF018F7E8093EF016E
:1040900013C08D3F21F48091ED018E7F0BC08E3FC8
:1040A00021F48091ED018D7F05C08F3F29F480912F
:1040B000ED018B7F8093ED018091F00181110EC0A5
:1040C0008091F10181110AC08091F201811106C035
:1040D0008091F301811102C01092EC01089580914A
:1040E000E80183FF7EC086E394E00E94B3078091DD
:1040F000EF011F928F9381E394E09F938F930E942F
:104100004C088FE294E00E94B3078091F001282FC1
:10411000082E000C330B3F938F938CE294E09F9317
:104120008F930E944C088AE294E00E94B30780912A
:10413000F101282F082E000C330B3F938F9387E259
:1041400094E09F938F930E944C0885E294E00E9434
:10415000B3078091F201282F082E000C330B3F93F8
:104160008F9382E294E09F938F930E944C0880E2A9
:1041700094E00E94B3078091F301282F082E000CD1
:10418000330B3F938F938DE194E09F938F930E9425
:104190004C088AE194E00E94B3078091EC011F92E1
:1041A0008F9387E194E09F938F930E944C0885E161
:1041B00094E00E94B3078091ED011F928F9382E1FA
:1041C00094E09F938F930E944C088FE094E00E94AC
:1041D000B3078DB79EB74C960FB6F8949EBF0FBE2F
:1041E0008DBF8EEE91E00E9441100E946E1E909352
:1041F000EB018093EA0108951F93CF93DF938091A1
:10420000EA019091EB010E94861EAC019091EC01B5
:10421000992321F02091060130E006C0209107018A
:104220008AE0289F900111244217530708F47BC0AD
:104230008091F001C091F101D091F2011091F30150
:10424000811107C0C1116BC0D11169C0111167C0C4
:104250006AC09F3F19F09F5F9093EC01181624F4F9
:104260000E94001F8093F0018091F00187FF05C03C
:104270000E94001F81958093F0011C1624F40E9477
:10428000001F8093F1018091F10187FF05C00E941A
:10429000001F81958093F1013091F0013323E1F00B
:1042A0002091F1012223C1F045EB3403C001112418
:1042B000892F990F990B009709F481E08093F00101
:1042C00035EB2303C0011124892F990F990B009717
:1042D00009F481E08093F1011D1624F40E94491F26
:1042E0008093F2018091F20187FF05C00E94491F6F
:1042F00081958093F201111624F40E94491F809346
:10430000F3018091F30187FF05C00E94491F819549
:104310008093F301DF91CF911F910C946F209F3F09
:1043200009F099CFA1CFDF91CF911F910895EEEEC3
:10433000F1E086E0DF011D928A95E9F71092EC0129
:104340001092ED01089589E596E00E94B3071F924F
:1043500081E08F931F9285E08F938BE096E09F938F
:104360008F930E944C080F900F900F900F900F901A
:104370000F9008958330E9F128F4813061F08230A4
:1043800009F10895853009F462C008F449C0863007
:1043900009F474C0089580910701262F30E0280F9A
:1043A000311D2F3F310524F4680F6093070103C0CE
:1043B0008FEF80930701809107011F928F9384E410
:1043C00095E072C080910601262F30E0280F311D44
:1043D0002F3F310524F4680F6093060103C08FEF6F
:1043E00080930601809106011F928F9382E395E0EE
:1043F0005BC080910501262F30E0280F311D2F3F33
:10440000310524F4680F6093050103C08FEF80939A
:104410000501809105011F928F938FE195E044C0C3
:1044200080910401262F30E0280F311D2F3F3105E8
:1044300024F4680F6093040103C08FEF809304019C
:10444000809104011F928F938AE095E02DC08091A6
:104450000301262F30E0280F311D2F3F310524F4B2
:10446000680F6093030103C08FEF80930301809175
:1044700003011F928F9381EF94E016C08091020197
:10448000262F30E0280F311D2F3F310524F4680F0F
:104490006093020103C08FEF8093020180910201BB
:1044A0001F928F9386ED94E09F938F930E944C0808
:1044B0000F900F900F900F900895833081F128F4A2
:1044C000813059F08230D1F00895853009F449C027
:1044D000B8F1863009F456C0089580910701681735
:1044E00020F4861B8093070102C01092070180917F
:1044F00007011F928F9387EC94E054C080910601CE
:10450000681720F4861B8093060102C010920601F2
:10451000809106011F928F9385EB94E043C08091B8
:104520000501681720F4861B8093050102C01092D4
:104530000501809105011F928F9382EA94E032C0B9
:1045400080910401681720F4861B8093040102C047
:1045500010920401809104011F928F938DE894E0E2
:1045600021C080910301681720F4861B809303010A
:1045700002C010920301809103011F928F9384E780
:1045800094E010C080910201681720F4861B80938C
:10459000020102C010920201809102011F928F93CA
:1045A00089E594E09F938F930E944C080F900F90A1
:1045B0000F900F900895CF93C82F1F928F938EE581
:1045C00097E09F938F930E944C0881E090E0A0E0D9
:1045D000B0E0BC01CD0104C0660F771F881F991F92
:1045E000CA95D2F70E94FA190F900F900F900F9072
:1045F000CF910C941F16CF93482F50E0FA013597B6
:10460000EF33F10508F03BC2E556FF4F0C94AF2E97
:1046100084EC9CE00E94B30780E09CE00E94B3071A
:104620000E94CB1C1F928F938DEF9BE09F938F93E3
:104630000E944C088BEF9BE00E94B3070E94C71CAE
:10464000C82F88EE9BE00E94B3071F92CF9383EEA2
:104650009BE09F938F930E944C0881EE9BE00E9409
:10466000B30787ED9BE00E94B3078C2F81701F92E8
:104670008F9384ED9BE09F938F930E944C0882ED73
:104680009BE00E94B30788EC9BE00E94B307C1FB4C
:10469000882780F91F928F9385EC9BE09F938F93DF
:1046A0000E944C0883EC9BE00E94B30787EB9BE0E1
:1046B0000E94B307C2FB882780F91F928F9384EB77
:1046C0009BE09F938F930E944C0882EB9BE00E949B
:1046D000B30789EA9BE00E94B307C3FBCC27C0F96C
:1046E0001F92CF9386EA9BE09F938F930E944C0882
:1046F00084EA9BE00E94B3070E94CF1CC82F80E988
:104700009BE00E94B3071F92CF938BE89BE09F939F
:104710008F930E944C0889E89BE00E94B30780E7D2
:104720009BE00E94B3078C2F81701F928F938DE6C0
:104730009BE09F938F930E944C088DB79EB7809605
:104740000FB6F8949EBF0FBE8DBF8BE69BE00E9414
:10475000B30784E59BE00E94B307C1FB882780F97B
:104760001F928F9381E59BE09F938F930E944C084B
:104770008FE49BE00E94B3078DE39BE00E94B307A8
:10478000C2FB882780F91F928F938AE39BE09F9357
:104790008F930E944C0888E39BE00E94B30786E257
:1047A0009BE00E94B307C3FB882780F91F928F9379
:1047B00083E29BE09F938F930E944C0881E29BE0F1
:1047C0000E94B30787E19BE00E94B307C4FB8827E0
:1047D00080F91F928F9384E19BE09F938F930E94B7
:1047E0004C0882E19BE00E94B30780E09BE00E94BE
:1047F000B307C5FB882780F91F928F938DEF9AE04E
:104800009F938F930E944C088BEF9AE00E94B3070E
:104810008FED9AE00E94B307C6FB882780F91F92AC
:104820008F938CED9AE09F938F930E944C088AEDB2
:104830009AE00E94B30782ED9AE00E94B307C7FB9B
:10484000CC27C0F91F92CF938FEC9AE09F938F9360
:104850000E944C088DEC9AE00E94B3078DB79EB77A
:104860004C960FB6F8949EBF0FBE8DBF06C083EB6B
:104870009CE00E94B3070E94361DC1E005C18BE198
:1048800099E07FC08091E801817F8E7F8093E8016D
:1048900084EF98E00E94B3078FEA9CE00E94B30780
:1048A00081E08093F501E9CF0E941F1683E99CE027
:1048B0000E94B3079FEF23ED80E39150204080409A
:1048C000E1F700C000000E94D61ED7CF8091E8011A
:1048D000C82FC095C170C0FB80F98093E801CC233C
:1048E00019F087E89CE0BDC08AE79CE00E94B3070E
:1048F0008091E801897F877F8093E801BECF909106
:10490000E80191FBCC27C0F981E0C827892FC0FBC3
:1049100081F98093E801CC2319F08DE69CE027C053
:104920008FE59CE02EC09091E80192FBCC27C0F966
:1049300081E0C827892FC0FB82F98093E801CC234E
:1049400019F080E59CE013C080E49CE01AC09091CF
:10495000E80193FBCC27C0F981E0C827892FC0FB71
:1049600083F98093E801CC2351F084E39CE00E941A
:10497000B3078091E80181608093E80185C087E2F8
:104980009CE00E94B30779CF85EE98E00E94B307C0
:104990008AEB98E00E94B30780E898E00E94B30792
:1049A0008DE498E00E94B30782E198E00E94B3078B
:1049B00084EE97E0E6CF86ED97E00E94B3070E9471
:1049C000E00F1F928F938CEB97E09F938F930E9441
:1049D0004C08809112011F928F9385EA97E09F9374
:1049E0008F930E944C0880911A021F928F9382E944
:1049F00097E09F938F930E944C088091270287FB3A
:104A0000882780F91F928F938AE797E09F938F936F
:104A10000E944C080E947A1E9F938F937F936F93FE
:104A200083E697E09F938F930E944C088DB79EB7C3
:104A300046960FB6F8949EBF0FBE8DBF1ECF0E9444
:104A40001F169091270297FBCC27C0F981E0C82759
:104A5000892FC0FB87F980932702CC2329F08DE1B1
:104A60009CE00E94B30710C082E19CE08ACF89538A
:104A700003C08D5101C080E00E94DB22FECE80E1A8
:104A80009CE00E94B307C0E08C2FCF91089580E096
:104A9000089580E008958E518A3030F4E82FF0E0D8
:104AA000EE5DFE4F8081089580E00895CF93C82F7A
:104AB0008091F501813059F020F0823009F445C031
:104AC00039C10E94D41B823209F036C104C00E9451
:104AD000D41B823261F48C2F0E944725811104C0BF
:104AE0008C2F0E94FB222FC081E090E02CC08C2FE5
:104AF0000E944925811126C0C431E1F070F4CB3009
:104B000081F0C031D1F40E94A32186E597E00E9494
:104B1000B30782E08093F50115C0C93259F0C8335C
:104B200061F484EF98E00E94B3078AE597E00E9461
:104B3000B30708C01092F50101C184E597E00E9417
:104B4000B307FCC081E08170FBC0C43228F5CE31D0
:104B500008F0C1C0CB30A1F1D0F4C73009F0D0C00B
:104B60008EE18093070182E3809306018AE08093BF
:104B7000050184E18093040188E08093030188E2C9
:104B8000809302018AEF95E00E94B307BCC0C33155
:104B900049F1C431C1F0B4C0CB3409F4A6C028F443
:104BA000C93289F0C83361F0ABC0C13509F49BC08C
:104BB000C23509F496C0CE3409F0A2C06AE09BC0A9
:104BC0000E94A321A0C08091F401882319F01092C3
:104BD000F40199C087E096E00E94B30781E08093DA
:104BE000F501AEC081EE95E00E94B3078FEC95E031
:104BF0000E94B307809107011F928F938CEC95E080
:104C00009F938F930E944C088AEC95E00E94B30713
:104C100088EB95E00E94B307809106011F928F9365
:104C200085EB95E09F938F930E944C0883EB95E072
:104C30000E94B30784EA95E00E94B30780910501C2
:104C40001F928F9381EA95E09F938F930E944C0867
:104C50008FE995E00E94B3078EE895E00E94B307C4
:104C6000809104011F928F938BE895E09F938F931F
:104C70000E944C0889E895E00E94B30784E795E01C
:104C80000E94B307809103011F928F9381E795E003
:104C90009F938F930E944C088FE695E00E94B30784
:104CA00088E595E00E94B307809102011F928F93DF
:104CB00085E595E09F938F930E944C0883E595E0EE
:104CC0000E94B3078DB79EB748960FB6F8949EBF63
:104CD0000FBE8DBF18C08C2F0E944B258093F4010E
:104CE00012C061E003C061E006C06AE08091F40197
:104CF0000E94BA2108C08091F4010E945D2203C085
:104D000088EF95E013C08091F401882369F01F9229
:104D10008F9382EF95E09F938F930E944C080F90A2
:104D20000F900F900F9004C08FEE95E00E94B30794
:104D300081E006C01092F50180E002C080E003CF60
:104D4000CF9108958091190208959FB7F894109219
:104D5000F8019FBF90912D02943009F057C09091B7
:104D6000E9009F703091EC00232F217030FD20E886
:104D7000922B23E02093E9002091EB0020FF43C019
:104D80002091EE0027FF3FC02091F601222321F061
:104D90002091E80025FF37C01092F60126E03091FF
:104DA000E80035FD15C030912D02343061F53091A9
:104DB000EB0035FD28C0215021F481E08093F601FD
:104DC00022C0EFE9FFE03197F1F700C00000E7CF24
:104DD0008093F1008091E80085FD0AC08091E80091
:104DE00080FFFCCF8091E8008E778093E80006C0BA
:104DF0008FB7F89421E02093F8018FBF9F709093B4
:104E0000E90080E008959F709093E9008FEF089586
:104E10000F931F93CF93DF9300D01F92CDB7DEB7D0
:104E20008C010E94D729823011F0843021F584E072
:104E300089831B830A8382E08093E9008FEF90913E
:104E4000E800815095FD06C095ED9A95F1F70000B8
:104E50008111F5CF8091E80085FF0DC040E050E062
:104E600063E070E0CE0101960E94F4298091E80091
:104E70008E778093E8000F900F900F90DF91CF9185
:104E80001F910F910895CF93DF9300D01F92CDB75C
:104E9000DEB720912D02243031F523E0298380589C
:104EA00091099B838A8382E08093E9008FEF909140
:104EB000E800815095FD06C095ED9A95F1F7000048
:104EC0008111F5CF8091E80085FF0DC040E050E0F2
:104ED00063E070E0CE0101960E94F4298091E80021
:104EE0008E778093E8000F900F900F90DF91CF9115
:104EF0000895CF93DF93EC010E94D729823011F0FF
:104F00008430F9F482E08093E9009FEF8091E8001B
:104F1000915085FD06C085ED8A95F1F7000091114D
:104F2000F5CF8091E80085FF0CC040E050E066E0DE
:104F300070E0CE010E94F4298091E8008E77809382
:104F4000E800DF91CF910895CF93DF93EC010E94A9
:104F5000D729823011F08430D9F58091120188234D
:104F600039F08091270287FF03C060E282E002C02F
:104F700068E081E08093E9008FEF9091E800815034
:104F800095FD06C095ED9A95F1F700008111F5CFDA
:104F90008091E80085FF1CC080911201811105C03D
:104FA00040E050E068E070E003C070E040E050E0B6
:104FB000CE010E94F4298091E8008E778093E8006A
:104FC00080E2FE01A9EFB1E001900D928A95E1F730
:104FD000DF91CF91089584EF9CE00E94B307809108
:104FE0002C02811109C00E94892B0E94E62B80911E
:104FF000E20084608093E200089580EF9CE00E94CC
:10500000B30710922C0208958CEE9CE00C94B30729
:1050100088EE9CE00C94B30784EE9CE00E94B307FA
:105020000C94341E2091F7012F5F822F62E30E94BF
:105030008F2E992319F02093F70108951092F7010C
:105040008091F801882371F180912D02843041F51F
:105050008091E9008F702091EC00922F917020FDDB
:1050600090E8892B93E09093E9009091EB0090FFFA
:1050700014C09091EE0097FF10C09091E80095FF4A
:1050800003C01092F100F9CF9091E80090FF05C0A5
:105090009091E8009E779093E8008F708093E900EC
:1050A0001092F801089542E061EC81E00E94032B28
:1050B00042E261EC82E00E94032B42E261EC83E079
:1050C0000C94032B80912F02833009F460C030F4DC
:1050D000813071F0823009F499C008958A3009F462
:1050E00085C08B3009F46BC0893009F0A7C020C09F
:1050F00080912E02813A09F0A1C08091E800877F5B
:105100008093E8008091320290913302892B21F440
:1051100060E289EF91E003C060E080E090E070E041
:105120000E943F2A8091E8008B778093E8000895E1
:1051300080912E02813209F081C0809132029091DB
:105140003302029708F07AC08091E800877F80934D
:10515000E8008091E80082FD05C080912D02811158
:10516000F8CF6CC02091F3008091F20090E0922B78
:10517000029729F48091F1008B7F813021F4809196
:10518000F100809319028091E8008B7753C08091E1
:105190002E02813A09F052C080913202909133027E
:1051A000892B09F04BC08091E800877F8093E8004D
:1051B0008091E80080FFFCCF8091120136C0809181
:1051C0002E028132D9F58091320290913302892BDF
:1051D000A9F58091E800877F8093E8000E94382B32
:1051E00080913002809312010C941F1680912E0240
:1051F000813221F58091E800877F8093E8000E944A
:10520000382B8091310280931A02089580912E02EA
:10521000813AA1F48091E800877F8093E800809133
:10522000E80080FFFCCF80911A028093F10080910A
:10523000E8008E778093E8000C94382B089584B7AB
:10524000877F84BF0FB6F894A8958091600088612D
:1052500080936000109260000FBE80E88093610030
:10526000109261000E9489100E94892B0E94E62BF7
:105270008091E20084608093E20085EA96E20E94D9
:10528000871C78940E94742E0E94911088E091E00F
:105290000E94DB0F83ED9CE00E94B30780912D02FA
:1052A000853089F48FEC9CE00E94B3070E94EA1DD0
:1052B00080912B02882391F30E941C1E882371F396
:1052C0000E94DE29EBCF0E94C110E8CF0C94682920
:1052D000292F332723303105C9F064F421303105FB
:1052E00081F02230310509F049C08BE590E02CE2D5
:1052F0003DE048C02132310521F12232310571F102
:105300003DC082E190E027E83DE03CC09927813034
:10531000910571F02CF4892B89F5E8E2FDE00DC0D0
:105320008230910541F0039749F5E8EFFCE005C0B4
:10533000EEE0FDE002C0EEEFFCE0849190E09F0122
:1053400021C063307105D0F4660F771FFB01EB5C61
:10535000FE4F2081318189E090E014C063307105F7
:1053600068F4FB01EE0FFF1FE15DFE4F20813181EC
:10537000FB01E45DFE4F808190E004C080E090E09E
:1053800020E030E0FA013183208308950895CF931F
:10539000C82F0E94C629C0931B02CF910895809107
:1053A0002D02843011F081E0089582E0089580910B
:1053B0001B02811102C00C94CF29089580E189BDA0
:1053C00082E189BD09B400FEFDCF8091D8008F7DB8
:1053D0008093D8008091E00082608093E00080910B
:1053E000E00081FDFCCF0895CF92DF92EF92FF9213
:1053F0000F931F93CF93DF93EC018B016A010E94FF
:10540000572B811133C0C114D10439F0F6018081CA
:105410009181081B190BC80FD91FE12CF12C011524
:10542000110519F18091E80085FD16C08091E80012
:105430008E778093E800C114D10449F0F601808191
:105440009181E80EF91EF182E08285E00FC00E9492
:10545000572B882321F30AC089918093F1000150D2
:105460001109FFEFEF1AFF0ADACF80E0DF91CF9149
:105470001F910F91FF90EF90DF90CF9008952091B2
:105480003402309135022617370748F0611571054F
:1054900039F42091E8002E772093E80001C0B9018B
:1054A00040E061157105A9F120912D02222309F434
:1054B00043C0253009F442C02091E80023FD40C0DC
:1054C0002091E80022FD32C02091E80020FFE9CFC2
:1054D0004091F3002091F20030E0342BFC01CF0129
:1054E0006115710559F02830310540F481918093A0
:1054F000F100615071092F5F3F4FF1CF41E028303B
:10550000310509F040E02091E8002E772093E80073
:10551000C8CF4111C9CF0AC080912D02882361F004
:10552000853061F08091E80083FD0AC08091E80039
:1055300082FFF2CF80E0089582E0089583E008952D
:1055400081E0089520913402309135022617370703
:1055500048F06115710539F42091E8002E77209309
:10556000E80001C0B901FC0120E06115710591F16D
:1055700080912D02882309F440C0853009F43FC092
:105580008091E80083FD3DC08091E80082FD2FC03E
:105590008091E80080FFE9CF2091F3008091F20034
:1055A00090E0922B6115710559F08830910540F417
:1055B00024912093F1003196615071090196F2CF48
:1055C00021E0089709F020E08091E8008E77809331
:1055D000E800CBCF2111CCCF0AC080912D028823C7
:1055E00061F0853061F08091E80083FD0AC0809110
:1055F000E80082FFF2CF80E0089582E0089583E022
:10560000089581E00895982F973058F59093E90018
:10561000981739F07091EC002091ED005091F00056
:1056200003C0242F762F50E021FF19C03091EB00EA
:105630003E7F3093EB003091ED003D7F3093ED00E5
:105640003091EB0031603093EB007093EC002093CD
:10565000ED005093F0002091EE0027FF07C09F5F00
:10566000D3CF8F708093E90081E0089580E00895A2
:1056700080912E0287FF11C08091E80082FD05C055
:1056800080912D028111F8CF11C08091E8008B77B5
:105690000BC080912D02882349F08091E80080FFA3
:1056A000F8CF8091E8008E778093E80008952091EC
:1056B000E4003091E50095E64091EC00842F817084
:1056C00040FF22C08091E80080FD1CC080912D0227
:1056D000882391F0853091F08091EB0085FD10C01A
:1056E0004091E4005091E5004217530729F39A01D5
:1056F000915011F784E0089582E0089583E00895C1
:1057000081E0089580E008954091E80042FFDECFF7
:1057100008950E94F72B0E94FF2BE0EEF0E08081BD
:1057200081608083E8EDF0E080818F77808319BC11
:10573000A7EDB0E08C918E7F8C9380818F7E8083EB
:1057400010922C0208950F931F93CF93DF930E9422
:10575000F72B0E94FF2BC8EDD0E088818F778883DC
:1057600088818068888388818F7D888319BC1092A6
:105770002D021092290210922B0210922A0200EEA2
:1057800010E0F80180818B7F80838881816088832D
:1057900042E060E080E00E94032BE1EEF0E08081D7
:1057A0008E7F8083E2EEF0E0808181608083808163
:1057B00088608083F80180818E7F8083888180610A
:1057C0008883DF91CF911F910F910895E8EDF0E06C
:1057D00080818F7E8083E7EDF0E08081816080832F
:1057E00084E082BF81E080932C020C94A32BE8ED2F
:1057F000F0E080818E7F80831092E2000895109205
:10580000DA001092E10008951F920F920FB60F92E6
:1058100011242F933F934F935F936F937F938F93B5
:105820009F93AF93BF93EF93FF938091E10082FF2B
:105830000BC08091E20082FF07C08091E1008B7F66
:105840008093E1000E9412288091DA0080FF1FC03F
:105850008091D80080FF1BC08091DA008E7F8093FA
:10586000DA008091D90080FF0DC080E189BD82E11E
:1058700089BD09B400FEFDCF81E080932D020E9416
:10588000EB2705C019BC10922D020E94FD278091C4
:10589000E10080FF19C08091E20080FF15C0809177
:1058A000E2008E7F8093E2008091E200806180932D
:1058B000E2008091D80080628093D80019BC85E016
:1058C00080932D020E9408288091E10084FF30C05F
:1058D0008091E20084FF2CC080E189BD82E189BD16
:1058E00009B400FEFDCF8091D8008F7D8093D80051
:1058F0008091E1008F7E8093E1008091E2008F7EB5
:105900008093E2008091E20081608093E2008091C8
:105910002902882311F084E007C08091E30087FD0D
:1059200002C081E001C083E080932D020E940C2818
:105930008091E10083FF29C08091E20083FF25C0B0
:105940008091E100877F8093E10082E080932D02C7
:10595000109229028091E1008E7F8093E100809176
:10596000E2008E7F8093E2008091E200806180936C
:10597000E20042E060E080E00E94032B8091F000B2
:1059800088608093F0000E940428FF91EF91BF91FE
:10599000AF919F918F917F916F915F914F913F91C7
:1059A0002F910F900FBE0F901F9018951F920F927E
:1059B0000FB60F9211242F933F934F935F936F93E2
:1059C0007F938F939F93AF93BF93CF93DF93EF9387
:1059D000FF93C091E900CF708091EC00D82FD17077
:1059E00080FDD0E81092E9008091F000877F8093DD
:1059F000F00078940E941A2D1092E9008091F00036
:105A000088608093F000CD2BCF70C093E900FF91A8
:105A1000EF91DF91CF91BF91AF919F918F917F9146
:105A20006F915F914F913F912F910F900FBE0F900B
:105A30001F9018951F93CF93DF93CDB7DEB7AA972A
:105A40000FB6F894DEBF0FBECDBFEEE2F2E088E005
:105A50008E0F9091F10091938E13FBCF0E946228DC
:105A60008091E80083FF28C180912E0290912F023F
:105A7000492F50E04A30510508F01EC1FA01E652A4
:105A8000FF4F0C94AF2E803821F0823809F014C1FA
:105A900008C080912A0290912B02992389F082609C
:105AA0000FC0809132028F70873008F005C180935B
:105AB000E9008091EB0085FB882780F91092E900CE
:105AC0009091E800977F9093E8008093F100109206
:105AD000F100D0C0282F2D7F09F0EEC0882319F0E7
